{
  "contractName": "VehicleMarketplace",
  "abi": [
    {
      "inputs": [
        {
          "internalType": "address",
          "name": "VRTAddress",
          "type": "address"
        }
      ],
      "stateMutability": "nonpayable",
      "type": "constructor"
    },
    {
      "anonymous": false,
      "inputs": [
        {
          "indexed": true,
          "internalType": "uint256",
          "name": "ticketId",
          "type": "uint256"
        },
        {
          "indexed": false,
          "internalType": "address",
          "name": "seller",
          "type": "address"
        },
        {
          "indexed": false,
          "internalType": "uint256",
          "name": "tokenId",
          "type": "uint256"
        }
      ],
      "name": "Cancel",
      "type": "event"
    },
    {
      "anonymous": false,
      "inputs": [
        {
          "indexed": true,
          "internalType": "uint256",
          "name": "ticketId",
          "type": "uint256"
        },
        {
          "indexed": false,
          "internalType": "address",
          "name": "seller",
          "type": "address"
        },
        {
          "indexed": false,
          "internalType": "address",
          "name": "tokenContract",
          "type": "address"
        },
        {
          "indexed": false,
          "internalType": "uint256",
          "name": "tokenId",
          "type": "uint256"
        },
        {
          "indexed": false,
          "internalType": "uint256",
          "name": "price",
          "type": "uint256"
        }
      ],
      "name": "OnSale",
      "type": "event"
    },
    {
      "anonymous": false,
      "inputs": [
        {
          "indexed": true,
          "internalType": "uint256",
          "name": "ticketId",
          "type": "uint256"
        },
        {
          "indexed": false,
          "internalType": "address",
          "name": "buyer",
          "type": "address"
        },
        {
          "indexed": false,
          "internalType": "address",
          "name": "tokenContract",
          "type": "address"
        },
        {
          "indexed": false,
          "internalType": "uint256",
          "name": "tokenId",
          "type": "uint256"
        },
        {
          "indexed": false,
          "internalType": "uint256",
          "name": "price",
          "type": "uint256"
        }
      ],
      "name": "Sold",
      "type": "event"
    },
    {
      "inputs": [],
      "name": "listedItemsCount",
      "outputs": [
        {
          "internalType": "uint256",
          "name": "",
          "type": "uint256"
        }
      ],
      "stateMutability": "view",
      "type": "function"
    },
    {
      "inputs": [
        {
          "internalType": "uint256",
          "name": "tokenId",
          "type": "uint256"
        }
      ],
      "name": "isTokenOnSale",
      "outputs": [
        {
          "internalType": "bool",
          "name": "",
          "type": "bool"
        }
      ],
      "stateMutability": "view",
      "type": "function"
    },
    {
      "inputs": [
        {
          "internalType": "uint256",
          "name": "tokenId",
          "type": "uint256"
        },
        {
          "internalType": "uint256",
          "name": "price",
          "type": "uint256"
        }
      ],
      "name": "placeNftOnSale",
      "outputs": [],
      "stateMutability": "payable",
      "type": "function"
    },
    {
      "inputs": [
        {
          "internalType": "uint256",
          "name": "tokenId",
          "type": "uint256"
        }
      ],
      "name": "getTokenSaleTicket",
      "outputs": [
        {
          "components": [
            {
              "internalType": "address",
              "name": "seller",
              "type": "address"
            },
            {
              "internalType": "contract IERC721",
              "name": "tokenContract",
              "type": "address"
            },
            {
              "internalType": "uint256",
              "name": "tokenId",
              "type": "uint256"
            },
            {
              "internalType": "uint256",
              "name": "price",
              "type": "uint256"
            },
            {
              "internalType": "enum VehicleMarketplace.SaleTicketStatus",
              "name": "status",
              "type": "uint8"
            }
          ],
          "internalType": "struct VehicleMarketplace.SaleTicket",
          "name": "",
          "type": "tuple"
        }
      ],
      "stateMutability": "view",
      "type": "function"
    },
    {
      "inputs": [
        {
          "internalType": "uint256",
          "name": "tokenId",
          "type": "uint256"
        }
      ],
      "name": "buyNft",
      "outputs": [],
      "stateMutability": "payable",
      "type": "function"
    },
    {
      "inputs": [
        {
          "internalType": "uint256",
          "name": "tokenId",
          "type": "uint256"
        }
      ],
      "name": "cancelSale",
      "outputs": [],
      "stateMutability": "nonpayable",
      "type": "function"
    }
  ],
  "bytecode": "0x60806040523480156200001157600080fd5b5060405162001646380380620016468339818101604052810190620000379190620000e9565b80600260006101000a81548173ffffffffffffffffffffffffffffffffffffffff021916908373ffffffffffffffffffffffffffffffffffffffff160217905550506200011b565b600080fd5b600073ffffffffffffffffffffffffffffffffffffffff82169050919050565b6000620000b18262000084565b9050919050565b620000c381620000a4565b8114620000cf57600080fd5b50565b600081519050620000e381620000b8565b92915050565b6000602082840312156200010257620001016200007f565b5b60006200011284828501620000d2565b91505092915050565b61151b806200012b6000396000f3fe6080604052600436106100555760003560e01c806321f422e51461005a578063243adbdd14610076578063951fbdf014610092578063ad0952b3146100cf578063bd94b0051461010c578063ccb4918d14610135575b600080fd5b610074600480360381019061006f9190610df1565b610160565b005b610090600480360381019061008b9190610e31565b610505565b005b34801561009e57600080fd5b506100b960048036038101906100b49190610e31565b6108a6565b6040516100c69190610e79565b60405180910390f35b3480156100db57600080fd5b506100f660048036038101906100f19190610e31565b6108d0565b6040516101039190611022565b60405180910390f35b34801561011857600080fd5b50610133600480360381019061012e9190610e31565b610a71565b005b34801561014157600080fd5b5061014a610cb8565b604051610157919061104c565b60405180910390f35b3373ffffffffffffffffffffffffffffffffffffffff16600260009054906101000a900473ffffffffffffffffffffffffffffffffffffffff1673ffffffffffffffffffffffffffffffffffffffff16636352211e846040518263ffffffff1660e01b81526004016101d2919061104c565b602060405180830381865afa1580156101ef573d6000803e3d6000fd5b505050506040513d601f19601f820116820180604052508101906102139190611093565b73ffffffffffffffffffffffffffffffffffffffff1614610269576040517f08c379a00000000000000000000000000000000000000000000000000000000081526004016102609061111d565b60405180910390fd5b6003600083815260200190815260200160002060009054906101000a900460ff16156102ca576040517f08c379a00000000000000000000000000000000000000000000000000000000081526004016102c190611189565b60405180910390fd5b6102d46000610cc9565b60006102e06000610cdf565b90506102ec6001610cc9565b60016003600085815260200190815260200160002060006101000a81548160ff0219169083151502179055508060056000858152602001908152602001600020819055506040518060a001604052803373ffffffffffffffffffffffffffffffffffffffff168152602001600260009054906101000a900473ffffffffffffffffffffffffffffffffffffffff1673ffffffffffffffffffffffffffffffffffffffff168152602001848152602001838152602001600060028111156103b5576103b4610f43565b5b8152506004600083815260200190815260200160002060008201518160000160006101000a81548173ffffffffffffffffffffffffffffffffffffffff021916908373ffffffffffffffffffffffffffffffffffffffff16021790555060208201518160010160006101000a81548173ffffffffffffffffffffffffffffffffffffffff021916908373ffffffffffffffffffffffffffffffffffffffff160217905550604082015181600201556060820151816003015560808201518160040160006101000a81548160ff0219169083600281111561049857610497610f43565b5b0217905550905050807f57da7affdd6f59458b648295213ff92ec81119e07a096fbf638290a396c57c2533600260009054906101000a900473ffffffffffffffffffffffffffffffffffffffff1686866040516104f894939291906111b8565b60405180910390a2505050565b6003600082815260200190815260200160002060009054906101000a900460ff16610565576040517f08c379a000000000000000000000000000000000000000000000000000000000815260040161055c90611249565b60405180910390fd5b60006005600083815260200190815260200160002054905060006004600083815260200190815260200160002090506000816003015490506000600260009054906101000a900473ffffffffffffffffffffffffffffffffffffffff1673ffffffffffffffffffffffffffffffffffffffff16636352211e866040518263ffffffff1660e01b81526004016105fa919061104c565b602060405180830381865afa158015610617573d6000803e3d6000fd5b505050506040513d601f19601f8201168201806040525081019061063b9190611093565b90508073ffffffffffffffffffffffffffffffffffffffff163373ffffffffffffffffffffffffffffffffffffffff16036106ab576040517f08c379a00000000000000000000000000000000000000000000000000000000081526004016106a2906112b5565b60405180910390fd5b8134146106ed576040517f08c379a00000000000000000000000000000000000000000000000000000000081526004016106e490611321565b60405180910390fd5b600260009054906101000a900473ffffffffffffffffffffffffffffffffffffffff1673ffffffffffffffffffffffffffffffffffffffff166323b872dd8233886040518463ffffffff1660e01b815260040161074c93929190611341565b600060405180830381600087803b15801561076657600080fd5b505af115801561077a573d6000803e3d6000fd5b5050505060006003600087815260200190815260200160002060006101000a81548160ff0219169083151502179055506107b46001610ced565b60018360040160006101000a81548160ff021916908360028111156107dc576107db610f43565b5b021790555060056000868152602001908152602001600020600090558073ffffffffffffffffffffffffffffffffffffffff166108fc349081150290604051600060405180830381858888f1935050505015801561083e573d6000803e3d6000fd5b50837fa70b1a854695e7921b122988e216d3a6cd10ed799017c67b1ff231967e6bf56d33600260009054906101000a900473ffffffffffffffffffffffffffffffffffffffff16888660405161089794939291906111b8565b60405180910390a25050505050565b60006003600083815260200190815260200160002060009054906101000a900460ff169050919050565b6108d8610d49565b6003600083815260200190815260200160002060009054906101000a900460ff16610938576040517f08c379a000000000000000000000000000000000000000000000000000000000815260040161092f906113c4565b60405180910390fd5b600060056000848152602001908152602001600020549050600460008281526020019081526020016000206040518060a00160405290816000820160009054906101000a900473ffffffffffffffffffffffffffffffffffffffff1673ffffffffffffffffffffffffffffffffffffffff1673ffffffffffffffffffffffffffffffffffffffff1681526020016001820160009054906101000a900473ffffffffffffffffffffffffffffffffffffffff1673ffffffffffffffffffffffffffffffffffffffff1673ffffffffffffffffffffffffffffffffffffffff16815260200160028201548152602001600382015481526020016004820160009054906101000a900460ff166002811115610a5357610a52610f43565b5b6002811115610a6557610a64610f43565b5b81525050915050919050565b3373ffffffffffffffffffffffffffffffffffffffff16600260009054906101000a900473ffffffffffffffffffffffffffffffffffffffff1673ffffffffffffffffffffffffffffffffffffffff16636352211e836040518263ffffffff1660e01b8152600401610ae3919061104c565b602060405180830381865afa158015610b00573d6000803e3d6000fd5b505050506040513d601f19601f82011682018060405250810190610b249190611093565b73ffffffffffffffffffffffffffffffffffffffff1614610b7a576040517f08c379a0000000000000000000000000000000000000000000000000000000008152600401610b719061111d565b60405180910390fd5b6003600082815260200190815260200160002060009054906101000a900460ff16610bda576040517f08c379a0000000000000000000000000000000000000000000000000000000008152600401610bd190611430565b60405180910390fd5b600060056000838152602001908152602001600020549050600060046000838152602001908152602001600020905060006003600085815260200190815260200160002060006101000a81548160ff02191690831515021790555060028160040160006101000a81548160ff02191690836002811115610c5d57610c5c610f43565b5b02179055506005600084815260200190815260200160002060009055817f4e4fbd9f26259e82cfb30871ba8fb37535ebc893e81ff81141c1a2dc925d930f3385604051610cab929190611450565b60405180910390a2505050565b6000610cc46001610cdf565b905090565b6001816000016000828254019250508190555050565b600081600001549050919050565b60008160000154905060008111610d39576040517f08c379a0000000000000000000000000000000000000000000000000000000008152600401610d30906114c5565b60405180910390fd5b6001810382600001819055505050565b6040518060a00160405280600073ffffffffffffffffffffffffffffffffffffffff168152602001600073ffffffffffffffffffffffffffffffffffffffff168152602001600081526020016000815260200160006002811115610db057610daf610f43565b5b81525090565b600080fd5b6000819050919050565b610dce81610dbb565b8114610dd957600080fd5b50565b600081359050610deb81610dc5565b92915050565b60008060408385031215610e0857610e07610db6565b5b6000610e1685828601610ddc565b9250506020610e2785828601610ddc565b9150509250929050565b600060208284031215610e4757610e46610db6565b5b6000610e5584828501610ddc565b91505092915050565b60008115159050919050565b610e7381610e5e565b82525050565b6000602082019050610e8e6000830184610e6a565b92915050565b600073ffffffffffffffffffffffffffffffffffffffff82169050919050565b6000610ebf82610e94565b9050919050565b610ecf81610eb4565b82525050565b6000819050919050565b6000610efa610ef5610ef084610e94565b610ed5565b610e94565b9050919050565b6000610f0c82610edf565b9050919050565b6000610f1e82610f01565b9050919050565b610f2e81610f13565b82525050565b610f3d81610dbb565b82525050565b7f4e487b7100000000000000000000000000000000000000000000000000000000600052602160045260246000fd5b60038110610f8357610f82610f43565b5b50565b6000819050610f9482610f72565b919050565b6000610fa482610f86565b9050919050565b610fb481610f99565b82525050565b60a082016000820151610fd06000850182610ec6565b506020820151610fe36020850182610f25565b506040820151610ff66040850182610f34565b5060608201516110096060850182610f34565b50608082015161101c6080850182610fab565b50505050565b600060a0820190506110376000830184610fba565b92915050565b61104681610dbb565b82525050565b6000602082019050611061600083018461103d565b92915050565b61107081610eb4565b811461107b57600080fd5b50565b60008151905061108d81611067565b92915050565b6000602082840312156110a9576110a8610db6565b5b60006110b78482850161107e565b91505092915050565b600082825260208201905092915050565b7f596f7520617265206e6f74206f776e6572206f662074686973206e6674000000600082015250565b6000611107601d836110c0565b9150611112826110d1565b602082019050919050565b60006020820190508181036000830152611136816110fa565b9050919050565b7f4974656d20697320616c7265616479206f6e2073616c65000000000000000000600082015250565b60006111736017836110c0565b915061117e8261113d565b602082019050919050565b600060208201905081810360008301526111a281611166565b9050919050565b6111b281610eb4565b82525050565b60006080820190506111cd60008301876111a9565b6111da60208301866111a9565b6111e7604083018561103d565b6111f4606083018461103d565b95945050505050565b7f5468652076656869636c65206973206e6f74206f6e2073616c65000000000000600082015250565b6000611233601a836110c0565b915061123e826111fd565b602082019050919050565b6000602082019050818103600083015261126281611226565b9050919050565b7f596f7520616c7265616479206f776e2074686973204e46540000000000000000600082015250565b600061129f6018836110c0565b91506112aa82611269565b602082019050919050565b600060208201905081810360008301526112ce81611292565b9050919050565b7f506c65617365207375626d6974207468652061736b696e672070726963650000600082015250565b600061130b601e836110c0565b9150611316826112d5565b602082019050919050565b6000602082019050818103600083015261133a816112fe565b9050919050565b600060608201905061135660008301866111a9565b61136360208301856111a9565b611370604083018461103d565b949350505050565b7f54686520746f6b656e206973206e6f74206f6e2073616c650000000000000000600082015250565b60006113ae6018836110c0565b91506113b982611378565b602082019050919050565b600060208201905081810360008301526113dd816113a1565b9050919050565b7f4974656d206973206e6f74206f6e2073616c6500000000000000000000000000600082015250565b600061141a6013836110c0565b9150611425826113e4565b602082019050919050565b600060208201905081810360008301526114498161140d565b9050919050565b600060408201905061146560008301856111a9565b611472602083018461103d565b9392505050565b7f436f756e7465723a2064656372656d656e74206f766572666c6f770000000000600082015250565b60006114af601b836110c0565b91506114ba82611479565b602082019050919050565b600060208201905081810360008301526114de816114a2565b905091905056fea2646970667358221220e7d3750647483fe868324974e25f7421267f49e8cad05fb800a859309f0ae28e64736f6c634300080f0033",
  "immutableReferences": {},
  "source": "// SPDX-License-Identifier: MIT\r\npragma solidity >=0.4.22 <0.9.0;\r\n\r\nimport \"@openzeppelin/contracts/utils/Counters.sol\";\r\nimport \"./VehicleRegistrationToken.sol\";\r\n\r\ncontract VehicleMarketplace {\r\n    using Counters for Counters.Counter;\r\n\r\n    Counters.Counter private _saleTicketIds;\r\n    Counters.Counter private _listedItemsCount;\r\n\r\n    VehicleRegistrationToken vrt;\r\n\r\n    mapping(uint256 => bool) _isTokenOnSale;\r\n    mapping(uint256 => SaleTicket) _idToSaleTicket;\r\n    mapping(uint256 => uint256) _tokenIdToSaleTicketId;\r\n\r\n    constructor(address VRTAddress) {\r\n        vrt = VehicleRegistrationToken(VRTAddress);\r\n    }\r\n\r\n    enum SaleTicketStatus {\r\n        PENDING,\r\n        COMPLETED,\r\n        CANCELLED\r\n    }\r\n\r\n    struct SaleTicket {\r\n        address seller;\r\n        IERC721 tokenContract;\r\n        uint256 tokenId;\r\n        uint256 price;\r\n        SaleTicketStatus status;\r\n    }\r\n\r\n    event OnSale(\r\n        uint256 indexed ticketId,\r\n        address seller,\r\n        address tokenContract,\r\n        uint256 tokenId,\r\n        uint256 price\r\n    );\r\n\r\n    event Sold(\r\n        uint256 indexed ticketId,\r\n        address buyer,\r\n        address tokenContract,\r\n        uint256 tokenId,\r\n        uint256 price\r\n    );\r\n\r\n    event Cancel(uint256 indexed ticketId, address seller, uint256 tokenId);\r\n\r\n    function listedItemsCount() public view returns (uint256) {\r\n        return _listedItemsCount.current();\r\n    }\r\n\r\n    function isTokenOnSale(uint256 tokenId) public view returns (bool) {\r\n        return _isTokenOnSale[tokenId];\r\n    }\r\n\r\n    function placeNftOnSale(uint256 tokenId, uint256 price) public payable {\r\n        require(\r\n            vrt.ownerOf(tokenId) == msg.sender,\r\n            \"You are not owner of this nft\"\r\n        );\r\n        require(!_isTokenOnSale[tokenId], \"Item is already on sale\");\r\n        _saleTicketIds.increment();\r\n        uint256 _ticketId = _saleTicketIds.current();\r\n        _listedItemsCount.increment();\r\n        _isTokenOnSale[tokenId] = true;\r\n        _tokenIdToSaleTicketId[tokenId] = _ticketId;\r\n        _idToSaleTicket[_ticketId] = SaleTicket(\r\n            msg.sender,\r\n            vrt,\r\n            tokenId,\r\n            price,\r\n            SaleTicketStatus.PENDING\r\n        );\r\n\r\n        emit OnSale(_ticketId, msg.sender, address(vrt), tokenId, price);\r\n    }\r\n\r\n    function getTokenSaleTicket(uint256 tokenId)\r\n        public\r\n        view\r\n        returns (SaleTicket memory)\r\n    {\r\n        require(_isTokenOnSale[tokenId], \"The token is not on sale\");\r\n        uint256 _ticketId = _tokenIdToSaleTicketId[tokenId];\r\n        return _idToSaleTicket[_ticketId];\r\n    }\r\n\r\n    function buyNft(uint256 tokenId) public payable {\r\n        require(_isTokenOnSale[tokenId], \"The vehicle is not on sale\");\r\n        uint256 _ticketId = _tokenIdToSaleTicketId[tokenId];\r\n        SaleTicket storage saleTicket = _idToSaleTicket[_ticketId];\r\n        uint256 price = saleTicket.price;\r\n        address owner = vrt.ownerOf(tokenId);\r\n\r\n        require(msg.sender != owner, \"You already own this NFT\");\r\n        require(msg.value == price, \"Please submit the asking price\");\r\n\r\n        vrt.transferFrom(owner, msg.sender, tokenId);\r\n        _isTokenOnSale[tokenId] = false;\r\n        _listedItemsCount.decrement();\r\n        saleTicket.status = SaleTicketStatus.COMPLETED;\r\n        delete _tokenIdToSaleTicketId[tokenId];\r\n\r\n        payable(owner).transfer(msg.value);\r\n\r\n        emit Sold(_ticketId, msg.sender, address(vrt), tokenId, price);\r\n    }\r\n\r\n    function cancelSale(uint256 tokenId) public {\r\n        require(\r\n            vrt.ownerOf(tokenId) == msg.sender,\r\n            \"You are not owner of this nft\"\r\n        );\r\n        require(_isTokenOnSale[tokenId], \"Item is not on sale\");\r\n        uint256 _ticketId = _tokenIdToSaleTicketId[tokenId];\r\n        SaleTicket storage saleTicket = _idToSaleTicket[_ticketId];\r\n        _isTokenOnSale[tokenId] = false;\r\n        saleTicket.status = SaleTicketStatus.CANCELLED;\r\n        delete _tokenIdToSaleTicketId[tokenId];\r\n        emit Cancel(_ticketId, msg.sender, tokenId);\r\n    }\r\n}\r\n",
  "sourcePath": "D:\\UTENTE\\Andrea\\CODICE\\Ethereum\\tesi-2022-website\\contracts\\VehicleMarketplace.sol",
  "compiler": {
    "name": "solc",
    "version": "0.8.15+commit.e14f2714.Emscripten.clang"
  },
  "schemaVersion": "3.4.8",
  "updatedAt": "2022-09-15T13:43:06.083Z",
  "devdoc": {
    "kind": "dev",
    "methods": {},
    "version": 1
  },
  "userdoc": {
    "kind": "user",
    "methods": {},
    "version": 1
  }
}