{
  "contractName": "VehicleMarket",
  "abi": [
    {
      "inputs": [
        {
          "internalType": "address",
          "name": "VRTAddress",
          "type": "address"
        }
      ],
      "stateMutability": "nonpayable",
      "type": "constructor"
    },
    {
      "inputs": [],
      "name": "listedItemsCount",
      "outputs": [
        {
          "internalType": "uint256",
          "name": "",
          "type": "uint256"
        }
      ],
      "stateMutability": "view",
      "type": "function"
    },
    {
      "inputs": [
        {
          "internalType": "uint256",
          "name": "tokenId",
          "type": "uint256"
        }
      ],
      "name": "isVehicleOnSale",
      "outputs": [
        {
          "internalType": "bool",
          "name": "",
          "type": "bool"
        }
      ],
      "stateMutability": "view",
      "type": "function"
    },
    {
      "inputs": [
        {
          "internalType": "uint256",
          "name": "tokenId",
          "type": "uint256"
        }
      ],
      "name": "getVehicleSaleTickets",
      "outputs": [
        {
          "components": [
            {
              "internalType": "uint256",
              "name": "price",
              "type": "uint256"
            },
            {
              "internalType": "uint256",
              "name": "outTimestamp",
              "type": "uint256"
            },
            {
              "internalType": "bool",
              "name": "out",
              "type": "bool"
            }
          ],
          "internalType": "struct VehicleMarket.SaleTicket[]",
          "name": "",
          "type": "tuple[]"
        }
      ],
      "stateMutability": "view",
      "type": "function"
    },
    {
      "inputs": [
        {
          "internalType": "uint256",
          "name": "tokenId",
          "type": "uint256"
        }
      ],
      "name": "getLastVehicleSaleTicketId",
      "outputs": [
        {
          "internalType": "uint256",
          "name": "",
          "type": "uint256"
        }
      ],
      "stateMutability": "view",
      "type": "function"
    },
    {
      "inputs": [],
      "name": "getAllNftsOnSale",
      "outputs": [
        {
          "components": [
            {
              "components": [
                {
                  "internalType": "uint256",
                  "name": "tokenId",
                  "type": "uint256"
                },
                {
                  "internalType": "address",
                  "name": "mintingAuthority",
                  "type": "address"
                },
                {
                  "internalType": "uint256",
                  "name": "timestamp",
                  "type": "uint256"
                }
              ],
              "internalType": "struct VehicleMetadata.VehicleToken",
              "name": "token",
              "type": "tuple"
            },
            {
              "internalType": "uint256",
              "name": "price",
              "type": "uint256"
            }
          ],
          "internalType": "struct VehicleMarket.SaleInfo[]",
          "name": "",
          "type": "tuple[]"
        }
      ],
      "stateMutability": "view",
      "type": "function"
    },
    {
      "inputs": [
        {
          "internalType": "uint256",
          "name": "tokenId",
          "type": "uint256"
        }
      ],
      "name": "buyNft",
      "outputs": [],
      "stateMutability": "payable",
      "type": "function"
    },
    {
      "inputs": [
        {
          "internalType": "uint256",
          "name": "tokenId",
          "type": "uint256"
        },
        {
          "internalType": "uint256",
          "name": "newPrice",
          "type": "uint256"
        }
      ],
      "name": "placeNftOnSale",
      "outputs": [],
      "stateMutability": "payable",
      "type": "function"
    },
    {
      "inputs": [
        {
          "internalType": "uint256",
          "name": "tokenId",
          "type": "uint256"
        }
      ],
      "name": "removeNftOnSale",
      "outputs": [],
      "stateMutability": "nonpayable",
      "type": "function"
    }
  ],
  "bytecode": "0x60806040523480156200001157600080fd5b5060405162001a3938038062001a398339818101604052810190620000379190620000e9565b80600560006101000a81548173ffffffffffffffffffffffffffffffffffffffff021916908373ffffffffffffffffffffffffffffffffffffffff160217905550506200011b565b600080fd5b600073ffffffffffffffffffffffffffffffffffffffff82169050919050565b6000620000b18262000084565b9050919050565b620000c381620000a4565b8114620000cf57600080fd5b50565b600081519050620000e381620000b8565b92915050565b6000602082840312156200010257620001016200007f565b5b60006200011284828501620000d2565b91505092915050565b61190e806200012b6000396000f3fe60806040526004361061007b5760003560e01c80635260444a1161004e5780635260444a1461010c5780635fb05ae814610149578063ccb4918d14610186578063f911f76a146101b15761007b565b806321f422e514610080578063243adbdd1461009c57806336b536be146100b85780633e840ced146100e3575b600080fd5b61009a60048036038101906100959190610f63565b6101ee565b005b6100b660048036038101906100b19190610fa3565b61046f565b005b3480156100c457600080fd5b506100cd610754565b6040516100da9190611140565b60405180910390f35b3480156100ef57600080fd5b5061010a60048036038101906101059190610fa3565b6108fa565b005b34801561011857600080fd5b50610133600480360381019061012e9190610fa3565b610aa8565b6040516101409190611171565b60405180910390f35b34801561015557600080fd5b50610170600480360381019061016b9190610fa3565b610b83565b60405161017d9190611298565b60405180910390f35b34801561019257600080fd5b5061019b610cf9565b6040516101a89190611171565b60405180910390f35b3480156101bd57600080fd5b506101d860048036038101906101d39190610fa3565b610d06565b6040516101e591906112c9565b60405180910390f35b3373ffffffffffffffffffffffffffffffffffffffff16600560009054906101000a900473ffffffffffffffffffffffffffffffffffffffff1673ffffffffffffffffffffffffffffffffffffffff16636352211e846040518263ffffffff1660e01b81526004016102609190611171565b602060405180830381865afa15801561027d573d6000803e3d6000fd5b505050506040513d601f19601f820116820180604052508101906102a19190611310565b73ffffffffffffffffffffffffffffffffffffffff16146102f7576040517f08c379a00000000000000000000000000000000000000000000000000000000081526004016102ee9061139a565b60405180910390fd5b6001600083815260200190815260200160002060009054906101000a900460ff1615610358576040517f08c379a000000000000000000000000000000000000000000000000000000000815260040161034f90611406565b60405180910390fd5b6103626000610d30565b604051806060016040528082815260200160008152602001600015158152506002600061038f6000610d46565b8152602001908152602001600020600082015181600001556020820151816001015560408201518160020160006101000a81548160ff021916908315150217905550905050600360008381526020019081526020016000206103f16000610d46565b90806001815401808255809150506001900390600052602060002001600090919091909150556004829080600181540180825580915050600190039060005260206000200160009091909190915055600180600084815260200190815260200160002060006101000a81548160ff0219169083151502179055505050565b6001600082815260200190815260200160002060009054906101000a900460ff166104cf576040517f08c379a00000000000000000000000000000000000000000000000000000000081526004016104c690611472565b60405180910390fd5b6000600260006104de84610aa8565b815260200190815260200160002090506000816000015490506000600560009054906101000a900473ffffffffffffffffffffffffffffffffffffffff1673ffffffffffffffffffffffffffffffffffffffff16636352211e856040518263ffffffff1660e01b81526004016105549190611171565b602060405180830381865afa158015610571573d6000803e3d6000fd5b505050506040513d601f19601f820116820180604052508101906105959190611310565b90508073ffffffffffffffffffffffffffffffffffffffff163373ffffffffffffffffffffffffffffffffffffffff1603610605576040517f08c379a00000000000000000000000000000000000000000000000000000000081526004016105fc906114de565b60405180910390fd5b813414610647576040517f08c379a000000000000000000000000000000000000000000000000000000000815260040161063e9061154a565b60405180910390fd5b60018360020160006101000a81548160ff02191690831515021790555042836001018190555061067684610d54565b600560009054906101000a900473ffffffffffffffffffffffffffffffffffffffff1673ffffffffffffffffffffffffffffffffffffffff166323b872dd8233876040518463ffffffff1660e01b81526004016106d593929190611579565b600060405180830381600087803b1580156106ef57600080fd5b505af1158015610703573d6000803e3d6000fd5b505050508073ffffffffffffffffffffffffffffffffffffffff166108fc349081150290604051600060405180830381858888f1935050505015801561074d573d6000803e3d6000fd5b5050505050565b6060600060048054905067ffffffffffffffff811115610777576107766115b0565b5b6040519080825280602002602001820160405280156107b057816020015b61079d610ea4565b8152602001906001900390816107955790505b50905060005b6004805490508110156108f2576000600482815481106107d9576107d86115df565b5b906000526020600020015490506000600560009054906101000a900473ffffffffffffffffffffffffffffffffffffffff1673ffffffffffffffffffffffffffffffffffffffff166385bfe9a7836040518263ffffffff1660e01b81526004016108439190611171565b606060405180830381865afa158015610860573d6000803e3d6000fd5b505050506040513d601f19601f8201168201806040525081019061088491906116e9565b905060006002600061089585610aa8565b81526020019081526020016000206000015490506040518060400160405280838152602001828152508585815181106108d1576108d06115df565b5b602002602001018190525050505080806108ea90611745565b9150506107b6565b508091505090565b3373ffffffffffffffffffffffffffffffffffffffff16600560009054906101000a900473ffffffffffffffffffffffffffffffffffffffff1673ffffffffffffffffffffffffffffffffffffffff16636352211e836040518263ffffffff1660e01b815260040161096c9190611171565b602060405180830381865afa158015610989573d6000803e3d6000fd5b505050506040513d601f19601f820116820180604052508101906109ad9190611310565b73ffffffffffffffffffffffffffffffffffffffff1614610a03576040517f08c379a00000000000000000000000000000000000000000000000000000000081526004016109fa9061139a565b60405180910390fd5b6001600082815260200190815260200160002060009054906101000a900460ff16610a63576040517f08c379a0000000000000000000000000000000000000000000000000000000008152600401610a5a90611406565b60405180910390fd5b610a6c81610d54565b60036000828152602001908152602001600020805480610a8f57610a8e61178d565b5b6001900381819060005260206000200160009055905550565b60008060036000848152602001908152602001600020805480602002602001604051908101604052809291908181526020018280548015610b0857602002820191906000526020600020905b815481526020019060010190808311610af4575b505050505090506000815111610b53576040517f08c379a0000000000000000000000000000000000000000000000000000000008152600401610b4a9061182e565b60405180910390fd5b8060018251610b62919061184e565b81518110610b7357610b726115df565b5b6020026020010151915050919050565b6060600060036000848152602001908152602001600020805480602002602001604051908101604052809291908181526020018280548015610be457602002820191906000526020600020905b815481526020019060010190808311610bd0575b505050505090506000815167ffffffffffffffff811115610c0857610c076115b0565b5b604051908082528060200260200182016040528015610c4157816020015b610c2e610ec4565b815260200190600190039081610c265790505b50905060005b8251811015610cee576000838281518110610c6557610c646115df565b5b602002602001015190506002600082815260200190815260200160002060405180606001604052908160008201548152602001600182015481526020016002820160009054906101000a900460ff161515151581525050838381518110610ccf57610cce6115df565b5b6020026020010181905250508080610ce690611745565b915050610c47565b508092505050919050565b6000600480549050905090565b60006001600083815260200190815260200160002060009054906101000a900460ff169050919050565b6001816000016000828254019250508190555050565b600081600001549050919050565b6001600082815260200190815260200160002060009054906101000a900460ff16610d7e57600080fd5b6000805b600480549050811015610dcb578260048281548110610da457610da36115df565b5b906000526020600020015403610db8578091505b8080610dc390611745565b915050610d82565b5060008190505b6001600480549050610de4919061184e565b811015610e4b576004600182610dfa9190611882565b81548110610e0b57610e0a6115df565b5b906000526020600020015460048281548110610e2a57610e296115df565b5b90600052602060002001819055508080610e4390611745565b915050610dd2565b506004805480610e5e57610e5d61178d565b5b6001900381819060005260206000200160009055905560006001600084815260200190815260200160002060006101000a81548160ff0219169083151502179055505050565b6040518060400160405280610eb7610ee7565b8152602001600081525090565b604051806060016040528060008152602001600081526020016000151581525090565b604051806060016040528060008152602001600073ffffffffffffffffffffffffffffffffffffffff168152602001600081525090565b6000604051905090565b600080fd5b6000819050919050565b610f4081610f2d565b8114610f4b57600080fd5b50565b600081359050610f5d81610f37565b92915050565b60008060408385031215610f7a57610f79610f28565b5b6000610f8885828601610f4e565b9250506020610f9985828601610f4e565b9150509250929050565b600060208284031215610fb957610fb8610f28565b5b6000610fc784828501610f4e565b91505092915050565b600081519050919050565b600082825260208201905092915050565b6000819050602082019050919050565b61100581610f2d565b82525050565b600073ffffffffffffffffffffffffffffffffffffffff82169050919050565b60006110368261100b565b9050919050565b6110468161102b565b82525050565b6060820160008201516110626000850182610ffc565b506020820151611075602085018261103d565b5060408201516110886040850182610ffc565b50505050565b6080820160008201516110a4600085018261104c565b5060208201516110b76060850182610ffc565b50505050565b60006110c9838361108e565b60808301905092915050565b6000602082019050919050565b60006110ed82610fd0565b6110f78185610fdb565b935061110283610fec565b8060005b8381101561113357815161111a88826110bd565b9750611125836110d5565b925050600181019050611106565b5085935050505092915050565b6000602082019050818103600083015261115a81846110e2565b905092915050565b61116b81610f2d565b82525050565b60006020820190506111866000830184611162565b92915050565b600081519050919050565b600082825260208201905092915050565b6000819050602082019050919050565b60008115159050919050565b6111cd816111b8565b82525050565b6060820160008201516111e96000850182610ffc565b5060208201516111fc6020850182610ffc565b50604082015161120f60408501826111c4565b50505050565b600061122183836111d3565b60608301905092915050565b6000602082019050919050565b60006112458261118c565b61124f8185611197565b935061125a836111a8565b8060005b8381101561128b5781516112728882611215565b975061127d8361122d565b92505060018101905061125e565b5085935050505092915050565b600060208201905081810360008301526112b2818461123a565b905092915050565b6112c3816111b8565b82525050565b60006020820190506112de60008301846112ba565b92915050565b6112ed8161102b565b81146112f857600080fd5b50565b60008151905061130a816112e4565b92915050565b60006020828403121561132657611325610f28565b5b6000611334848285016112fb565b91505092915050565b600082825260208201905092915050565b7f596f7520617265206e6f74206f776e6572206f662074686973206e6674000000600082015250565b6000611384601d8361133d565b915061138f8261134e565b602082019050919050565b600060208201905081810360008301526113b381611377565b9050919050565b7f4974656d20697320616c7265616479206f6e2073616c65000000000000000000600082015250565b60006113f060178361133d565b91506113fb826113ba565b602082019050919050565b6000602082019050818103600083015261141f816113e3565b9050919050565b7f5468652076656869636c65206973206e6f74206f6e2073616c65000000000000600082015250565b600061145c601a8361133d565b915061146782611426565b602082019050919050565b6000602082019050818103600083015261148b8161144f565b9050919050565b7f596f7520616c7265616479206f776e2074686973204e46540000000000000000600082015250565b60006114c860188361133d565b91506114d382611492565b602082019050919050565b600060208201905081810360008301526114f7816114bb565b9050919050565b7f506c65617365207375626d6974207468652061736b696e672070726963650000600082015250565b6000611534601e8361133d565b915061153f826114fe565b602082019050919050565b6000602082019050818103600083015261156381611527565b9050919050565b6115738161102b565b82525050565b600060608201905061158e600083018661156a565b61159b602083018561156a565b6115a86040830184611162565b949350505050565b7f4e487b7100000000000000000000000000000000000000000000000000000000600052604160045260246000fd5b7f4e487b7100000000000000000000000000000000000000000000000000000000600052603260045260246000fd5b600080fd5b6000601f19601f8301169050919050565b61162d82611613565b810181811067ffffffffffffffff8211171561164c5761164b6115b0565b5b80604052505050565b600061165f610f1e565b905061166b8282611624565b919050565b60008151905061167f81610f37565b92915050565b60006060828403121561169b5761169a61160e565b5b6116a56060611655565b905060006116b584828501611670565b60008301525060206116c9848285016112fb565b60208301525060406116dd84828501611670565b60408301525092915050565b6000606082840312156116ff576116fe610f28565b5b600061170d84828501611685565b91505092915050565b7f4e487b7100000000000000000000000000000000000000000000000000000000600052601160045260246000fd5b600061175082610f2d565b91507fffffffffffffffffffffffffffffffffffffffffffffffffffffffffffffffff820361178257611781611716565b5b600182019050919050565b7f4e487b7100000000000000000000000000000000000000000000000000000000600052603160045260246000fd5b7f56656869636c65206973206e6576657220626520706c61636564206f6e20736160008201527f6c65000000000000000000000000000000000000000000000000000000000000602082015250565b600061181860228361133d565b9150611823826117bc565b604082019050919050565b600060208201905081810360008301526118478161180b565b9050919050565b600061185982610f2d565b915061186483610f2d565b92508282101561187757611876611716565b5b828203905092915050565b600061188d82610f2d565b915061189883610f2d565b9250827fffffffffffffffffffffffffffffffffffffffffffffffffffffffffffffffff038211156118cd576118cc611716565b5b82820190509291505056fea2646970667358221220c90d54e66bd4a21d620655042841d44fdfdb14e98eaca1b262ec98d233f05d6e64736f6c634300080f0033",
  "immutableReferences": {},
  "source": "// SPDX-License-Identifier: MIT\r\npragma solidity >=0.4.22 <0.9.0;\r\n\r\nimport \"@openzeppelin/contracts/utils/Counters.sol\";\r\nimport \"./VehicleRegistrationToken.sol\";\r\nimport \"./VehicleMetadata.sol\";\r\n\r\ncontract VehicleMarket is VehicleMetadata {\r\n    using Counters for Counters.Counter;\r\n\r\n    Counters.Counter private _saleTicketsIds;\r\n\r\n    mapping(uint256 => bool) _isVehicleOnSale;\r\n    mapping(uint256 => SaleTicket) _idToSaleTicket;\r\n    mapping(uint256 => uint256[]) _vehicleToSaleTicketIds;\r\n    uint256[] _listedVehiclesIds;\r\n\r\n    VehicleRegistrationToken vrt;\r\n\r\n    constructor(address VRTAddress) {\r\n        vrt = VehicleRegistrationToken(VRTAddress);\r\n    }\r\n\r\n    struct SaleInfo {\r\n        VehicleToken token;\r\n        uint256 price;\r\n    }\r\n\r\n    struct SaleTicket {\r\n        uint256 price;\r\n        uint256 outTimestamp;\r\n        bool out;\r\n    }\r\n\r\n    function listedItemsCount() public view returns (uint256) {\r\n        return _listedVehiclesIds.length;\r\n    }\r\n\r\n    function isVehicleOnSale(uint256 tokenId) public view returns (bool) {\r\n        return _isVehicleOnSale[tokenId];\r\n    }\r\n\r\n    function getVehicleSaleTickets(uint256 tokenId)\r\n        public\r\n        view\r\n        returns (SaleTicket[] memory)\r\n    {\r\n        uint256[] memory vehicleSaleTicketsIds = _vehicleToSaleTicketIds[\r\n            tokenId\r\n        ];\r\n        SaleTicket[] memory items = new SaleTicket[](\r\n            vehicleSaleTicketsIds.length\r\n        );\r\n        for (uint256 i = 0; i < vehicleSaleTicketsIds.length; i++) {\r\n            uint256 ticketId = vehicleSaleTicketsIds[i];\r\n            items[i] = _idToSaleTicket[ticketId];\r\n        }\r\n        return items;\r\n    }\r\n\r\n    function getLastVehicleSaleTicketId(uint256 tokenId)\r\n        public\r\n        view\r\n        returns (uint256)\r\n    {\r\n        uint256[] memory vehicleSaleTickets = _vehicleToSaleTicketIds[tokenId];\r\n        require(\r\n            vehicleSaleTickets.length > 0,\r\n            \"Vehicle is never be placed on sale\"\r\n        );\r\n        return vehicleSaleTickets[vehicleSaleTickets.length - 1];\r\n    }\r\n\r\n    function getAllNftsOnSale() public view returns (SaleInfo[] memory) {\r\n        SaleInfo[] memory items = new SaleInfo[](_listedVehiclesIds.length);\r\n        for (uint256 i = 0; i < _listedVehiclesIds.length; i++) {\r\n            uint256 tokenId = _listedVehiclesIds[i];\r\n            VehicleToken memory item = vrt.getVehicleToken(tokenId);\r\n            uint256 itemPrice = _idToSaleTicket[\r\n                getLastVehicleSaleTicketId(tokenId)\r\n            ].price;\r\n            items[i] = SaleInfo({token: item, price: itemPrice});\r\n        }\r\n        return items;\r\n    }\r\n\r\n    function buyNft(uint256 tokenId) public payable {\r\n        require(_isVehicleOnSale[tokenId], \"The vehicle is not on sale\");\r\n        SaleTicket storage saleTicket = _idToSaleTicket[\r\n            getLastVehicleSaleTicketId(tokenId)\r\n        ];\r\n        uint256 price = saleTicket.price;\r\n        address owner = vrt.ownerOf(tokenId);\r\n        require(msg.sender != owner, \"You already own this NFT\");\r\n        require(msg.value == price, \"Please submit the asking price\");\r\n        saleTicket.out = true;\r\n        saleTicket.outTimestamp = block.timestamp;\r\n        _removeVehicleOnSale(tokenId);\r\n        vrt.transferFrom(owner, msg.sender, tokenId);\r\n        payable(owner).transfer(msg.value);\r\n    }\r\n\r\n    function placeNftOnSale(uint256 tokenId, uint256 newPrice) public payable {\r\n        require(\r\n            vrt.ownerOf(tokenId) == msg.sender,\r\n            \"You are not owner of this nft\"\r\n        );\r\n        require(!_isVehicleOnSale[tokenId], \"Item is already on sale\");\r\n        _saleTicketsIds.increment();\r\n        _idToSaleTicket[_saleTicketsIds.current()] = SaleTicket(\r\n            newPrice,\r\n            0,\r\n            false\r\n        );\r\n        _vehicleToSaleTicketIds[tokenId].push(_saleTicketsIds.current());\r\n        _listedVehiclesIds.push(tokenId);\r\n        _isVehicleOnSale[tokenId] = true;\r\n    }\r\n\r\n    function removeNftOnSale(uint256 tokenId) public {\r\n        require(\r\n            vrt.ownerOf(tokenId) == msg.sender,\r\n            \"You are not owner of this nft\"\r\n        );\r\n        require(_isVehicleOnSale[tokenId], \"Item is already on sale\");\r\n        _removeVehicleOnSale(tokenId);\r\n        _vehicleToSaleTicketIds[tokenId].pop();\r\n    }\r\n\r\n    function _removeVehicleOnSale(uint256 tokenId) private {\r\n        require(_isVehicleOnSale[tokenId]);\r\n        uint256 vehicleIdIndex = 0;\r\n        for (uint256 i = 0; i < _listedVehiclesIds.length; i++) {\r\n            if (_listedVehiclesIds[i] == tokenId) {\r\n                vehicleIdIndex = i;\r\n            }\r\n        }\r\n        for (\r\n            uint256 i = vehicleIdIndex;\r\n            i < _listedVehiclesIds.length - 1;\r\n            i++\r\n        ) {\r\n            _listedVehiclesIds[i] = _listedVehiclesIds[i + 1];\r\n        }\r\n        _listedVehiclesIds.pop();\r\n        _isVehicleOnSale[tokenId] = false;\r\n    }\r\n}\r\n",
  "sourcePath": "D:\\UTENTE\\Andrea\\CODICE\\Ethereum\\tesi-2022-website\\contracts\\VehicleMarket.sol",
  "compiler": {
    "name": "solc",
    "version": "0.8.15+commit.e14f2714.Emscripten.clang"
  },
  "schemaVersion": "3.4.7",
  "updatedAt": "2022-07-19T10:35:09.249Z",
  "devdoc": {
    "kind": "dev",
    "methods": {},
    "version": 1
  },
  "userdoc": {
    "kind": "user",
    "methods": {},
    "version": 1
  }
}