{
  "contractName": "VehicleMarketplace",
  "abi": [
    {
      "inputs": [
        {
          "internalType": "address",
          "name": "VRTAddress",
          "type": "address"
        }
      ],
      "stateMutability": "nonpayable",
      "type": "constructor"
    },
    {
      "anonymous": false,
      "inputs": [
        {
          "indexed": true,
          "internalType": "uint256",
          "name": "ticketId",
          "type": "uint256"
        },
        {
          "indexed": false,
          "internalType": "address",
          "name": "seller",
          "type": "address"
        },
        {
          "indexed": false,
          "internalType": "uint256",
          "name": "tokenId",
          "type": "uint256"
        }
      ],
      "name": "Cancel",
      "type": "event"
    },
    {
      "anonymous": false,
      "inputs": [
        {
          "indexed": true,
          "internalType": "uint256",
          "name": "ticketId",
          "type": "uint256"
        },
        {
          "indexed": false,
          "internalType": "address",
          "name": "seller",
          "type": "address"
        },
        {
          "indexed": false,
          "internalType": "address",
          "name": "tokenContract",
          "type": "address"
        },
        {
          "indexed": false,
          "internalType": "uint256",
          "name": "tokenId",
          "type": "uint256"
        },
        {
          "indexed": false,
          "internalType": "uint256",
          "name": "price",
          "type": "uint256"
        }
      ],
      "name": "OnSale",
      "type": "event"
    },
    {
      "anonymous": false,
      "inputs": [
        {
          "indexed": true,
          "internalType": "uint256",
          "name": "ticketId",
          "type": "uint256"
        },
        {
          "indexed": false,
          "internalType": "address",
          "name": "buyer",
          "type": "address"
        },
        {
          "indexed": false,
          "internalType": "address",
          "name": "tokenContract",
          "type": "address"
        },
        {
          "indexed": false,
          "internalType": "uint256",
          "name": "tokenId",
          "type": "uint256"
        },
        {
          "indexed": false,
          "internalType": "uint256",
          "name": "price",
          "type": "uint256"
        }
      ],
      "name": "Sold",
      "type": "event"
    },
    {
      "inputs": [],
      "name": "listedItemsCount",
      "outputs": [
        {
          "internalType": "uint256",
          "name": "",
          "type": "uint256"
        }
      ],
      "stateMutability": "view",
      "type": "function",
      "constant": true
    },
    {
      "inputs": [
        {
          "internalType": "uint256",
          "name": "tokenId",
          "type": "uint256"
        }
      ],
      "name": "isTokenOnSale",
      "outputs": [
        {
          "internalType": "bool",
          "name": "",
          "type": "bool"
        }
      ],
      "stateMutability": "view",
      "type": "function",
      "constant": true
    },
    {
      "inputs": [
        {
          "internalType": "uint256",
          "name": "tokenId",
          "type": "uint256"
        },
        {
          "internalType": "uint256",
          "name": "price",
          "type": "uint256"
        }
      ],
      "name": "placeNftOnSale",
      "outputs": [],
      "stateMutability": "payable",
      "type": "function",
      "payable": true
    },
    {
      "inputs": [
        {
          "internalType": "uint256",
          "name": "tokenId",
          "type": "uint256"
        }
      ],
      "name": "getTokenSaleTicket",
      "outputs": [
        {
          "components": [
            {
              "internalType": "address",
              "name": "seller",
              "type": "address"
            },
            {
              "internalType": "contract IERC721",
              "name": "tokenContract",
              "type": "address"
            },
            {
              "internalType": "uint256",
              "name": "tokenId",
              "type": "uint256"
            },
            {
              "internalType": "uint256",
              "name": "price",
              "type": "uint256"
            },
            {
              "internalType": "enum VehicleMarketplace.SaleTicketStatus",
              "name": "status",
              "type": "uint8"
            }
          ],
          "internalType": "struct VehicleMarketplace.SaleTicket",
          "name": "",
          "type": "tuple"
        }
      ],
      "stateMutability": "view",
      "type": "function",
      "constant": true
    },
    {
      "inputs": [
        {
          "internalType": "uint256",
          "name": "tokenId",
          "type": "uint256"
        }
      ],
      "name": "buyNft",
      "outputs": [],
      "stateMutability": "payable",
      "type": "function",
      "payable": true
    },
    {
      "inputs": [
        {
          "internalType": "uint256",
          "name": "tokenId",
          "type": "uint256"
        }
      ],
      "name": "cancelSale",
      "outputs": [],
      "stateMutability": "nonpayable",
      "type": "function"
    }
  ],
  "bytecode": "0x608060405234801561001057600080fd5b50604051610e80380380610e8083398101604081905261002f91610054565b600280546001600160a01b0319166001600160a01b0392909216919091179055610084565b60006020828403121561006657600080fd5b81516001600160a01b038116811461007d57600080fd5b9392505050565b610ded806100936000396000f3fe6080604052600436106100655760003560e01c8063ad0952b311610043578063ad0952b3146100d7578063bd94b00514610104578063ccb4918d1461012457600080fd5b806321f422e51461006a578063243adbdd1461007f578063951fbdf014610092575b600080fd5b61007d610078366004610c83565b610147565b005b61007d61008d366004610ca5565b6104a2565b34801561009e57600080fd5b506100c26100ad366004610ca5565b60009081526003602052604090205460ff1690565b60405190151581526020015b60405180910390f35b3480156100e357600080fd5b506100f76100f2366004610ca5565b61087b565b6040516100ce9190610ced565b34801561011057600080fd5b5061007d61011f366004610ca5565b6109c2565b34801561013057600080fd5b50610139610be4565b6040519081526020016100ce565b6002546040517f6352211e00000000000000000000000000000000000000000000000000000000815260048101849052339173ffffffffffffffffffffffffffffffffffffffff1690636352211e90602401602060405180830381865afa1580156101b6573d6000803e3d6000fd5b505050506040513d601f19601f820116820180604052508101906101da9190610d7a565b73ffffffffffffffffffffffffffffffffffffffff161461025c576040517f08c379a000000000000000000000000000000000000000000000000000000000815260206004820152601d60248201527f596f7520617265206e6f74206f776e6572206f662074686973206e667400000060448201526064015b60405180910390fd5b60008281526003602052604090205460ff16156102d5576040517f08c379a000000000000000000000000000000000000000000000000000000000815260206004820152601760248201527f4974656d20697320616c7265616479206f6e2073616c650000000000000000006044820152606401610253565b6102e3600080546001019055565b6000546001805481019055600083815260036020908152604080832080547fffffffffffffffffffffffffffffffffffffffffffffffffffffffffffffff0016600117905560058252808320849055805160a08101825233815260025473ffffffffffffffffffffffffffffffffffffffff16928101929092528101859052606081018490529060808201526000828152600460208181526040928390208451815473ffffffffffffffffffffffffffffffffffffffff9182167fffffffffffffffffffffffff00000000000000000000000000000000000000009182161783559286015160018084018054929093169190941617905592840151600280850191909155606085015160038501556080850151928401805490927fffffffffffffffffffffffffffffffffffffffffffffffffffffffffffffff0090911691849081111561043357610433610cbe565b0217905550506002546040805133815273ffffffffffffffffffffffffffffffffffffffff90921660208301528101859052606081018490528291507f57da7affdd6f59458b648295213ff92ec81119e07a096fbf638290a396c57c25906080015b60405180910390a2505050565b60008181526003602052604090205460ff1661051a576040517f08c379a000000000000000000000000000000000000000000000000000000000815260206004820152601a60248201527f5468652076656869636c65206973206e6f74206f6e2073616c650000000000006044820152606401610253565b600081815260056020908152604080832054808452600492839052818420600381015460025493517f6352211e000000000000000000000000000000000000000000000000000000008152948501879052919490939192909173ffffffffffffffffffffffffffffffffffffffff90911690636352211e90602401602060405180830381865afa1580156105b2573d6000803e3d6000fd5b505050506040513d601f19601f820116820180604052508101906105d69190610d7a565b905073ffffffffffffffffffffffffffffffffffffffff81163303610657576040517f08c379a000000000000000000000000000000000000000000000000000000000815260206004820152601860248201527f596f7520616c7265616479206f776e2074686973204e465400000000000000006044820152606401610253565b8134146106c0576040517f08c379a000000000000000000000000000000000000000000000000000000000815260206004820152601e60248201527f506c65617365207375626d6974207468652061736b696e6720707269636500006044820152606401610253565b6002546040517f23b872dd00000000000000000000000000000000000000000000000000000000815273ffffffffffffffffffffffffffffffffffffffff838116600483015233602483015260448201889052909116906323b872dd90606401600060405180830381600087803b15801561073a57600080fd5b505af115801561074e573d6000803e3d6000fd5b505050600086815260036020526040902080547fffffffffffffffffffffffffffffffffffffffffffffffffffffffffffffff00169055506107906001610bf4565b60048301805460017fffffffffffffffffffffffffffffffffffffffffffffffffffffffffffffff009091161790556000858152600560205260408082208290555173ffffffffffffffffffffffffffffffffffffffff8316913480156108fc02929091818181858888f19350505050158015610811573d6000803e3d6000fd5b506002546040805133815273ffffffffffffffffffffffffffffffffffffffff909216602083015281018690526060810183905284907fa70b1a854695e7921b122988e216d3a6cd10ed799017c67b1ff231967e6bf56d9060800160405180910390a25050505050565b6108aa6040805160a0810182526000808252602082018190529181018290526060810182905290608082015290565b60008281526003602052604090205460ff16610922576040517f08c379a000000000000000000000000000000000000000000000000000000000815260206004820152601860248201527f54686520746f6b656e206973206e6f74206f6e2073616c6500000000000000006044820152606401610253565b600082815260056020908152604080832054808452600480845293829020825160a081018452815473ffffffffffffffffffffffffffffffffffffffff908116825260018301541694810194909452600280820154938501939093526003810154606085015293840154909391608084019160ff16908111156109a7576109a7610cbe565b60028111156109b8576109b8610cbe565b9052509392505050565b6002546040517f6352211e00000000000000000000000000000000000000000000000000000000815260048101839052339173ffffffffffffffffffffffffffffffffffffffff1690636352211e90602401602060405180830381865afa158015610a31573d6000803e3d6000fd5b505050506040513d601f19601f82011682018060405250810190610a559190610d7a565b73ffffffffffffffffffffffffffffffffffffffff1614610ad2576040517f08c379a000000000000000000000000000000000000000000000000000000000815260206004820152601d60248201527f596f7520617265206e6f74206f776e6572206f662074686973206e66740000006044820152606401610253565b60008181526003602052604090205460ff16610b4a576040517f08c379a000000000000000000000000000000000000000000000000000000000815260206004820152601360248201527f4974656d206973206e6f74206f6e2073616c65000000000000000000000000006044820152606401610253565b6000818152600560208181526040808420805480865260048085528387208888526003865284882080547fffffffffffffffffffffffffffffffffffffffffffffffffffffffffffffff009081169091559181018054909216600217909155948452949055805133815291820185905283917f4e4fbd9f26259e82cfb30871ba8fb37535ebc893e81ff81141c1a2dc925d930f9101610495565b6000610bef60015490565b905090565b805480610c5d576040517f08c379a000000000000000000000000000000000000000000000000000000000815260206004820152601b60248201527f436f756e7465723a2064656372656d656e74206f766572666c6f7700000000006044820152606401610253565b7fffffffffffffffffffffffffffffffffffffffffffffffffffffffffffffffff019055565b60008060408385031215610c9657600080fd5b50508035926020909101359150565b600060208284031215610cb757600080fd5b5035919050565b7f4e487b7100000000000000000000000000000000000000000000000000000000600052602160045260246000fd5b600060a08201905073ffffffffffffffffffffffffffffffffffffffff808451168352806020850151166020840152506040830151604083015260608301516060830152608083015160038110610d6d577f4e487b7100000000000000000000000000000000000000000000000000000000600052602160045260246000fd5b8060808401525092915050565b600060208284031215610d8c57600080fd5b815173ffffffffffffffffffffffffffffffffffffffff81168114610db057600080fd5b939250505056fea2646970667358221220ad6009f7f4a4df13f3c9d49e56e144c19b99ca9124339809d9aaf5daba98fb4e64736f6c634300080f0033",
  "immutableReferences": {},
  "source": "// SPDX-License-Identifier: MIT\r\npragma solidity >=0.4.22 <0.9.0;\r\n\r\nimport \"@openzeppelin/contracts/utils/Counters.sol\";\r\nimport \"./VehicleRegistrationToken.sol\";\r\n\r\ncontract VehicleMarketplace {\r\n    using Counters for Counters.Counter;\r\n\r\n    Counters.Counter private _saleTicketIds;\r\n    Counters.Counter private _listedItemsCount;\r\n\r\n    VehicleRegistrationToken vrt;\r\n\r\n    mapping(uint256 => bool) _isTokenOnSale;\r\n    mapping(uint256 => SaleTicket) _idToSaleTicket;\r\n    mapping(uint256 => uint256) _tokenIdToSaleTicketId;\r\n\r\n    constructor(address VRTAddress) {\r\n        vrt = VehicleRegistrationToken(VRTAddress);\r\n    }\r\n\r\n    enum SaleTicketStatus {\r\n        PENDING,\r\n        COMPLETED,\r\n        CANCELLED\r\n    }\r\n\r\n    struct SaleTicket {\r\n        address seller;\r\n        IERC721 tokenContract;\r\n        uint256 tokenId;\r\n        uint256 price;\r\n        SaleTicketStatus status;\r\n    }\r\n\r\n    event OnSale(\r\n        uint256 indexed ticketId,\r\n        address seller,\r\n        address tokenContract,\r\n        uint256 tokenId,\r\n        uint256 price\r\n    );\r\n\r\n    event Sold(\r\n        uint256 indexed ticketId,\r\n        address buyer,\r\n        address tokenContract,\r\n        uint256 tokenId,\r\n        uint256 price\r\n    );\r\n\r\n    event Cancel(uint256 indexed ticketId, address seller, uint256 tokenId);\r\n\r\n    function listedItemsCount() public view returns (uint256) {\r\n        return _listedItemsCount.current();\r\n    }\r\n\r\n    function isTokenOnSale(uint256 tokenId) public view returns (bool) {\r\n        return _isTokenOnSale[tokenId];\r\n    }\r\n\r\n    function placeNftOnSale(uint256 tokenId, uint256 price) public payable {\r\n        require(\r\n            vrt.ownerOf(tokenId) == msg.sender,\r\n            \"You are not owner of this nft\"\r\n        );\r\n        require(!_isTokenOnSale[tokenId], \"Item is already on sale\");\r\n        _saleTicketIds.increment();\r\n        uint256 _ticketId = _saleTicketIds.current();\r\n        _listedItemsCount.increment();\r\n        _isTokenOnSale[tokenId] = true;\r\n        _tokenIdToSaleTicketId[tokenId] = _ticketId;\r\n        _idToSaleTicket[_ticketId] = SaleTicket(\r\n            msg.sender,\r\n            vrt,\r\n            tokenId,\r\n            price,\r\n            SaleTicketStatus.PENDING\r\n        );\r\n\r\n        emit OnSale(_ticketId, msg.sender, address(vrt), tokenId, price);\r\n    }\r\n\r\n    function getTokenSaleTicket(uint256 tokenId)\r\n        public\r\n        view\r\n        returns (SaleTicket memory)\r\n    {\r\n        require(_isTokenOnSale[tokenId], \"The token is not on sale\");\r\n        uint256 _ticketId = _tokenIdToSaleTicketId[tokenId];\r\n        return _idToSaleTicket[_ticketId];\r\n    }\r\n\r\n    function buyNft(uint256 tokenId) public payable {\r\n        require(_isTokenOnSale[tokenId], \"The vehicle is not on sale\");\r\n        uint256 _ticketId = _tokenIdToSaleTicketId[tokenId];\r\n        SaleTicket storage saleTicket = _idToSaleTicket[_ticketId];\r\n        uint256 price = saleTicket.price;\r\n        address owner = vrt.ownerOf(tokenId);\r\n\r\n        require(msg.sender != owner, \"You already own this NFT\");\r\n        require(msg.value == price, \"Please submit the asking price\");\r\n\r\n        vrt.transferFrom(owner, msg.sender, tokenId);\r\n        _isTokenOnSale[tokenId] = false;\r\n        _listedItemsCount.decrement();\r\n        saleTicket.status = SaleTicketStatus.COMPLETED;\r\n        delete _tokenIdToSaleTicketId[tokenId];\r\n\r\n        payable(owner).transfer(msg.value);\r\n\r\n        emit Sold(_ticketId, msg.sender, address(vrt), tokenId, price);\r\n    }\r\n\r\n    function cancelSale(uint256 tokenId) public {\r\n        require(\r\n            vrt.ownerOf(tokenId) == msg.sender,\r\n            \"You are not owner of this nft\"\r\n        );\r\n        require(_isTokenOnSale[tokenId], \"Item is not on sale\");\r\n        uint256 _ticketId = _tokenIdToSaleTicketId[tokenId];\r\n        SaleTicket storage saleTicket = _idToSaleTicket[_ticketId];\r\n        _isTokenOnSale[tokenId] = false;\r\n        saleTicket.status = SaleTicketStatus.CANCELLED;\r\n        delete _tokenIdToSaleTicketId[tokenId];\r\n        emit Cancel(_ticketId, msg.sender, tokenId);\r\n    }\r\n}\r\n",
  "sourcePath": "D:\\UTENTE\\Andrea\\CODICE\\Ethereum\\tesi-auto-uniud-backend\\contracts\\VehicleMarketplace.sol",
  "compiler": {
    "name": "solc",
    "version": "0.8.15+commit.e14f2714.Emscripten.clang"
  },
  "schemaVersion": "3.4.8",
  "updatedAt": "2022-09-23T09:16:17.371Z",
  "networkType": "ethereum",
  "devdoc": {
    "kind": "dev",
    "methods": {},
    "version": 1
  },
  "userdoc": {
    "kind": "user",
    "methods": {},
    "version": 1
  }
}