{
  "contractName": "VehicleRegistrationToken",
  "abi": [
    {
      "inputs": [],
      "stateMutability": "nonpayable",
      "type": "constructor"
    },
    {
      "anonymous": false,
      "inputs": [
        {
          "indexed": true,
          "internalType": "address",
          "name": "owner",
          "type": "address"
        },
        {
          "indexed": true,
          "internalType": "address",
          "name": "approved",
          "type": "address"
        },
        {
          "indexed": true,
          "internalType": "uint256",
          "name": "tokenId",
          "type": "uint256"
        }
      ],
      "name": "Approval",
      "type": "event"
    },
    {
      "anonymous": false,
      "inputs": [
        {
          "indexed": true,
          "internalType": "address",
          "name": "owner",
          "type": "address"
        },
        {
          "indexed": true,
          "internalType": "address",
          "name": "operator",
          "type": "address"
        },
        {
          "indexed": false,
          "internalType": "bool",
          "name": "approved",
          "type": "bool"
        }
      ],
      "name": "ApprovalForAll",
      "type": "event"
    },
    {
      "anonymous": false,
      "inputs": [
        {
          "indexed": true,
          "internalType": "address",
          "name": "previousOwner",
          "type": "address"
        },
        {
          "indexed": true,
          "internalType": "address",
          "name": "newOwner",
          "type": "address"
        }
      ],
      "name": "OwnershipTransferred",
      "type": "event"
    },
    {
      "anonymous": false,
      "inputs": [
        {
          "indexed": true,
          "internalType": "address",
          "name": "from",
          "type": "address"
        },
        {
          "indexed": true,
          "internalType": "address",
          "name": "to",
          "type": "address"
        },
        {
          "indexed": true,
          "internalType": "uint256",
          "name": "tokenId",
          "type": "uint256"
        }
      ],
      "name": "Transfer",
      "type": "event"
    },
    {
      "anonymous": false,
      "inputs": [
        {
          "indexed": true,
          "internalType": "uint256",
          "name": "id",
          "type": "uint256"
        },
        {
          "indexed": false,
          "internalType": "uint256",
          "name": "vehicleId",
          "type": "uint256"
        },
        {
          "indexed": false,
          "internalType": "address",
          "name": "authority",
          "type": "address"
        }
      ],
      "name": "VehicleCertificationCanceled",
      "type": "event"
    },
    {
      "anonymous": false,
      "inputs": [
        {
          "indexed": true,
          "internalType": "uint256",
          "name": "id",
          "type": "uint256"
        },
        {
          "indexed": false,
          "internalType": "uint256",
          "name": "code",
          "type": "uint256"
        },
        {
          "indexed": false,
          "internalType": "uint256",
          "name": "vehicleId",
          "type": "uint256"
        },
        {
          "indexed": false,
          "internalType": "address",
          "name": "authority",
          "type": "address"
        },
        {
          "indexed": false,
          "internalType": "string",
          "name": "uri",
          "type": "string"
        }
      ],
      "name": "VehicleCertificationCreated",
      "type": "event"
    },
    {
      "anonymous": false,
      "inputs": [
        {
          "indexed": true,
          "internalType": "uint256",
          "name": "tokenId",
          "type": "uint256"
        },
        {
          "indexed": false,
          "internalType": "address",
          "name": "creator",
          "type": "address"
        },
        {
          "indexed": false,
          "internalType": "string",
          "name": "uri",
          "type": "string"
        }
      ],
      "name": "VehicleTokenCreated",
      "type": "event"
    },
    {
      "inputs": [
        {
          "internalType": "address",
          "name": "to",
          "type": "address"
        },
        {
          "internalType": "uint256",
          "name": "tokenId",
          "type": "uint256"
        }
      ],
      "name": "approve",
      "outputs": [],
      "stateMutability": "nonpayable",
      "type": "function"
    },
    {
      "inputs": [
        {
          "internalType": "address",
          "name": "owner",
          "type": "address"
        }
      ],
      "name": "balanceOf",
      "outputs": [
        {
          "internalType": "uint256",
          "name": "",
          "type": "uint256"
        }
      ],
      "stateMutability": "view",
      "type": "function"
    },
    {
      "inputs": [
        {
          "internalType": "uint256",
          "name": "tokenId",
          "type": "uint256"
        }
      ],
      "name": "getApproved",
      "outputs": [
        {
          "internalType": "address",
          "name": "",
          "type": "address"
        }
      ],
      "stateMutability": "view",
      "type": "function"
    },
    {
      "inputs": [],
      "name": "name",
      "outputs": [
        {
          "internalType": "string",
          "name": "",
          "type": "string"
        }
      ],
      "stateMutability": "view",
      "type": "function"
    },
    {
      "inputs": [],
      "name": "owner",
      "outputs": [
        {
          "internalType": "address",
          "name": "",
          "type": "address"
        }
      ],
      "stateMutability": "view",
      "type": "function"
    },
    {
      "inputs": [
        {
          "internalType": "uint256",
          "name": "tokenId",
          "type": "uint256"
        }
      ],
      "name": "ownerOf",
      "outputs": [
        {
          "internalType": "address",
          "name": "",
          "type": "address"
        }
      ],
      "stateMutability": "view",
      "type": "function"
    },
    {
      "inputs": [],
      "name": "renounceOwnership",
      "outputs": [],
      "stateMutability": "nonpayable",
      "type": "function"
    },
    {
      "inputs": [
        {
          "internalType": "address",
          "name": "from",
          "type": "address"
        },
        {
          "internalType": "address",
          "name": "to",
          "type": "address"
        },
        {
          "internalType": "uint256",
          "name": "tokenId",
          "type": "uint256"
        }
      ],
      "name": "safeTransferFrom",
      "outputs": [],
      "stateMutability": "nonpayable",
      "type": "function"
    },
    {
      "inputs": [
        {
          "internalType": "address",
          "name": "from",
          "type": "address"
        },
        {
          "internalType": "address",
          "name": "to",
          "type": "address"
        },
        {
          "internalType": "uint256",
          "name": "tokenId",
          "type": "uint256"
        },
        {
          "internalType": "bytes",
          "name": "_data",
          "type": "bytes"
        }
      ],
      "name": "safeTransferFrom",
      "outputs": [],
      "stateMutability": "nonpayable",
      "type": "function"
    },
    {
      "inputs": [
        {
          "internalType": "address",
          "name": "operator",
          "type": "address"
        },
        {
          "internalType": "bool",
          "name": "approved",
          "type": "bool"
        }
      ],
      "name": "setApprovalForAll",
      "outputs": [],
      "stateMutability": "nonpayable",
      "type": "function"
    },
    {
      "inputs": [
        {
          "internalType": "bytes4",
          "name": "interfaceId",
          "type": "bytes4"
        }
      ],
      "name": "supportsInterface",
      "outputs": [
        {
          "internalType": "bool",
          "name": "",
          "type": "bool"
        }
      ],
      "stateMutability": "view",
      "type": "function"
    },
    {
      "inputs": [],
      "name": "symbol",
      "outputs": [
        {
          "internalType": "string",
          "name": "",
          "type": "string"
        }
      ],
      "stateMutability": "view",
      "type": "function"
    },
    {
      "inputs": [
        {
          "internalType": "uint256",
          "name": "tokenId",
          "type": "uint256"
        }
      ],
      "name": "tokenURI",
      "outputs": [
        {
          "internalType": "string",
          "name": "",
          "type": "string"
        }
      ],
      "stateMutability": "view",
      "type": "function"
    },
    {
      "inputs": [
        {
          "internalType": "address",
          "name": "from",
          "type": "address"
        },
        {
          "internalType": "address",
          "name": "to",
          "type": "address"
        },
        {
          "internalType": "uint256",
          "name": "tokenId",
          "type": "uint256"
        }
      ],
      "name": "transferFrom",
      "outputs": [],
      "stateMutability": "nonpayable",
      "type": "function"
    },
    {
      "inputs": [
        {
          "internalType": "address",
          "name": "newOwner",
          "type": "address"
        }
      ],
      "name": "transferOwnership",
      "outputs": [],
      "stateMutability": "nonpayable",
      "type": "function"
    },
    {
      "inputs": [
        {
          "internalType": "address",
          "name": "marketplaceAddress",
          "type": "address"
        }
      ],
      "name": "setMarketplaceAddress",
      "outputs": [],
      "stateMutability": "nonpayable",
      "type": "function"
    },
    {
      "inputs": [
        {
          "internalType": "uint256",
          "name": "tokenId",
          "type": "uint256"
        }
      ],
      "name": "getVehicleToken",
      "outputs": [
        {
          "components": [
            {
              "internalType": "uint256",
              "name": "tokenId",
              "type": "uint256"
            },
            {
              "internalType": "address",
              "name": "mintingAuthority",
              "type": "address"
            }
          ],
          "internalType": "struct VehicleRegistrationToken.VehicleToken",
          "name": "",
          "type": "tuple"
        }
      ],
      "stateMutability": "view",
      "type": "function"
    },
    {
      "inputs": [
        {
          "internalType": "string",
          "name": "tokenURI",
          "type": "string"
        }
      ],
      "name": "isURIUsed",
      "outputs": [
        {
          "internalType": "bool",
          "name": "",
          "type": "bool"
        }
      ],
      "stateMutability": "view",
      "type": "function"
    },
    {
      "inputs": [],
      "name": "totalSupply",
      "outputs": [
        {
          "internalType": "uint256",
          "name": "",
          "type": "uint256"
        }
      ],
      "stateMutability": "view",
      "type": "function"
    },
    {
      "inputs": [
        {
          "internalType": "string",
          "name": "tokenURI",
          "type": "string"
        }
      ],
      "name": "mintToken",
      "outputs": [
        {
          "internalType": "uint256",
          "name": "",
          "type": "uint256"
        }
      ],
      "stateMutability": "nonpayable",
      "type": "function"
    },
    {
      "inputs": [
        {
          "internalType": "address",
          "name": "owner",
          "type": "address"
        },
        {
          "internalType": "address",
          "name": "operator",
          "type": "address"
        }
      ],
      "name": "isApprovedForAll",
      "outputs": [
        {
          "internalType": "bool",
          "name": "",
          "type": "bool"
        }
      ],
      "stateMutability": "view",
      "type": "function"
    },
    {
      "inputs": [
        {
          "internalType": "uint256",
          "name": "key",
          "type": "uint256"
        }
      ],
      "name": "tokenExists",
      "outputs": [
        {
          "internalType": "bool",
          "name": "",
          "type": "bool"
        }
      ],
      "stateMutability": "view",
      "type": "function"
    },
    {
      "inputs": [
        {
          "internalType": "uint256",
          "name": "key",
          "type": "uint256"
        }
      ],
      "name": "certificationExists",
      "outputs": [
        {
          "internalType": "bool",
          "name": "",
          "type": "bool"
        }
      ],
      "stateMutability": "view",
      "type": "function"
    },
    {
      "inputs": [
        {
          "internalType": "uint256",
          "name": "vehicleId",
          "type": "uint256"
        },
        {
          "internalType": "uint256",
          "name": "code",
          "type": "uint256"
        },
        {
          "internalType": "string",
          "name": "certificationURI",
          "type": "string"
        }
      ],
      "name": "addCertification",
      "outputs": [
        {
          "internalType": "uint256",
          "name": "",
          "type": "uint256"
        }
      ],
      "stateMutability": "nonpayable",
      "type": "function"
    },
    {
      "inputs": [
        {
          "internalType": "uint256",
          "name": "certificationId",
          "type": "uint256"
        }
      ],
      "name": "deleteCertification",
      "outputs": [],
      "stateMutability": "nonpayable",
      "type": "function"
    }
  ],
  "bytecode": "0x60806040523480156200001157600080fd5b506040518060400160405280601a81526020017f56656869636c6520526567697374726174696f6e20546f6b656e0000000000008152506040518060400160405280600381526020017f565254000000000000000000000000000000000000000000000000000000000081525081600090816200008f919062000412565b508060019081620000a1919062000412565b505050620000c4620000b8620000ca60201b60201c565b620000d260201b60201c565b620004f9565b600033905090565b6000600760009054906101000a900473ffffffffffffffffffffffffffffffffffffffff16905081600760006101000a81548173ffffffffffffffffffffffffffffffffffffffff021916908373ffffffffffffffffffffffffffffffffffffffff1602179055508173ffffffffffffffffffffffffffffffffffffffff168173ffffffffffffffffffffffffffffffffffffffff167f8be0079c531659141344cd1fd0a4f28419497f9722a3daafe3b4186f6b6457e060405160405180910390a35050565b600081519050919050565b7f4e487b7100000000000000000000000000000000000000000000000000000000600052604160045260246000fd5b7f4e487b7100000000000000000000000000000000000000000000000000000000600052602260045260246000fd5b600060028204905060018216806200021a57607f821691505b60208210810362000230576200022f620001d2565b5b50919050565b60008190508160005260206000209050919050565b60006020601f8301049050919050565b600082821b905092915050565b6000600883026200029a7fffffffffffffffffffffffffffffffffffffffffffffffffffffffffffffffff826200025b565b620002a686836200025b565b95508019841693508086168417925050509392505050565b6000819050919050565b6000819050919050565b6000620002f3620002ed620002e784620002be565b620002c8565b620002be565b9050919050565b6000819050919050565b6200030f83620002d2565b620003276200031e82620002fa565b84845462000268565b825550505050565b600090565b6200033e6200032f565b6200034b81848462000304565b505050565b5b8181101562000373576200036760008262000334565b60018101905062000351565b5050565b601f821115620003c2576200038c8162000236565b62000397846200024b565b81016020851015620003a7578190505b620003bf620003b6856200024b565b83018262000350565b50505b505050565b600082821c905092915050565b6000620003e760001984600802620003c7565b1980831691505092915050565b6000620004028383620003d4565b9150826002028217905092915050565b6200041d8262000198565b67ffffffffffffffff811115620004395762000438620001a3565b5b62000445825462000201565b6200045282828562000377565b600060209050601f8311600181146200048a576000841562000475578287015190505b620004818582620003f4565b865550620004f1565b601f1984166200049a8662000236565b60005b82811015620004c4578489015182556001820191506020850194506020810190506200049d565b86831015620004e45784890151620004e0601f891682620003d4565b8355505b6001600288020188555050505b505050505050565b613e1980620005096000396000f3fe608060405234801561001057600080fd5b50600436106101725760003560e01c806370a08231116100de578063a22cb46511610097578063c87b56dd11610071578063c87b56dd1461046d578063d659de891461049d578063e985e9c5146104cd578063f2fde38b146104fd57610172565b8063a22cb46514610419578063b47cc55614610435578063b88d4fde1461045157610172565b806370a0823114610343578063715018a6146103735780637c6d908b1461037d57806385bfe9a7146103ad5780638da5cb5b146103dd57806395d89b41146103fb57610172565b806318160ddd1161013057806318160ddd1461025d57806323b872dd1461027b57806333eba49a1461029757806342842e0e146102c75780634b3168ca146102e35780636352211e1461031357610172565b8062923f9e1461017757806301ffc9a7146101a757806306fdde03146101d7578063081812fc146101f5578063095ea7b3146102255780630a9a545314610241575b600080fd5b610191600480360381019061018c9190612587565b610519565b60405161019e91906125cf565b60405180910390f35b6101c160048036038101906101bc9190612642565b61054b565b6040516101ce91906125cf565b60405180910390f35b6101df61062d565b6040516101ec9190612708565b60405180910390f35b61020f600480360381019061020a9190612587565b6106bf565b60405161021c919061276b565b60405180910390f35b61023f600480360381019061023a91906127b2565b610744565b005b61025b60048036038101906102569190612587565b61085b565b005b610265610acb565b6040516102729190612801565b60405180910390f35b6102956004803603810190610290919061281c565b610adc565b005b6102b160048036038101906102ac91906129a4565b610b3c565b6040516102be9190612801565b60405180910390f35b6102e160048036038101906102dc919061281c565b610cbf565b005b6102fd60048036038101906102f891906129ed565b610cdf565b60405161030a9190612801565b60405180910390f35b61032d60048036038101906103289190612587565b610ee0565b60405161033a919061276b565b60405180910390f35b61035d60048036038101906103589190612a5c565b610f91565b60405161036a9190612801565b60405180910390f35b61037b611048565b005b610397600480360381019061039291906129a4565b6110d0565b6040516103a491906125cf565b60405180910390f35b6103c760048036038101906103c29190612587565b61110c565b6040516103d49190612ad6565b60405180910390f35b6103e5611199565b6040516103f2919061276b565b60405180910390f35b6104036111c3565b6040516104109190612708565b60405180910390f35b610433600480360381019061042e9190612b1d565b611255565b005b61044f600480360381019061044a9190612a5c565b61126b565b005b61046b60048036038101906104669190612bfe565b6112af565b005b61048760048036038101906104829190612587565b611311565b6040516104949190612708565b60405180910390f35b6104b760048036038101906104b29190612587565b611462565b6040516104c491906125cf565b60405180910390f35b6104e760048036038101906104e29190612c81565b611494565b6040516104f491906125cf565b60405180910390f35b61051760048036038101906105129190612a5c565b611507565b005b600080600c600084815260200190815260200160002060000154146105415760019050610546565b600090505b919050565b60007f80ac58cd000000000000000000000000000000000000000000000000000000007bffffffffffffffffffffffffffffffffffffffffffffffffffffffff1916827bffffffffffffffffffffffffffffffffffffffffffffffffffffffff1916148061061657507f5b5e139f000000000000000000000000000000000000000000000000000000007bffffffffffffffffffffffffffffffffffffffffffffffffffffffff1916827bffffffffffffffffffffffffffffffffffffffffffffffffffffffff1916145b806106265750610625826115fe565b5b9050919050565b60606000805461063c90612cf0565b80601f016020809104026020016040519081016040528092919081815260200182805461066890612cf0565b80156106b55780601f1061068a576101008083540402835291602001916106b5565b820191906000526020600020905b81548152906001019060200180831161069857829003601f168201915b5050505050905090565b60006106ca82611668565b610709576040517f08c379a000000000000000000000000000000000000000000000000000000000815260040161070090612d93565b60405180910390fd5b6004600083815260200190815260200160002060009054906101000a900473ffffffffffffffffffffffffffffffffffffffff169050919050565b600061074f82610ee0565b90508073ffffffffffffffffffffffffffffffffffffffff168373ffffffffffffffffffffffffffffffffffffffff16036107bf576040517f08c379a00000000000000000000000000000000000000000000000000000000081526004016107b690612e25565b60405180910390fd5b8073ffffffffffffffffffffffffffffffffffffffff166107de6116d4565b73ffffffffffffffffffffffffffffffffffffffff16148061080d575061080c816108076116d4565b611494565b5b61084c576040517f08c379a000000000000000000000000000000000000000000000000000000000815260040161084390612eb7565b60405180910390fd5b61085683836116dc565b505050565b61086481611462565b6108a3576040517f08c379a000000000000000000000000000000000000000000000000000000000815260040161089a90612f23565b60405180910390fd5b6000600d600083815260200190815260200160002060405180608001604052908160008201548152602001600182015481526020016002820160009054906101000a900473ffffffffffffffffffffffffffffffffffffffff1673ffffffffffffffffffffffffffffffffffffffff1673ffffffffffffffffffffffffffffffffffffffff16815260200160038201805461093d90612cf0565b80601f016020809104026020016040519081016040528092919081815260200182805461096990612cf0565b80156109b65780601f1061098b576101008083540402835291602001916109b6565b820191906000526020600020905b81548152906001019060200180831161099957829003601f168201915b50505050508152505090506000600b82606001516040516109d79190612f7f565b908152602001604051809103902060006101000a81548160ff0219169083151502179055506000600e6000848152602001908152602001600020549050600d600084815260200190815260200160002060008082016000905560018201600090556002820160006101000a81549073ffffffffffffffffffffffffffffffffffffffff0219169055600382016000610a6f91906124b0565b5050600e600084815260200190815260200160002060009055827f30b44172bb39d24214c72171734172dee1cccd6b287f4e9c46277fa41102e779828460400151604051610abe929190612f96565b60405180910390a2505050565b6000610ad76009611795565b905090565b610aed610ae76116d4565b826117a3565b610b2c576040517f08c379a0000000000000000000000000000000000000000000000000000000008152600401610b2390613031565b60405180910390fd5b610b37838383611881565b505050565b6000610b47826110d0565b15610b87576040517f08c379a0000000000000000000000000000000000000000000000000000000008152600401610b7e9061309d565b60405180910390fd5b610b916009611ae7565b6000610b9d6009611795565b9050807fd18b6a06ada6b602ba768a047310682c9f4aa160a227c1bd2db7cd1c153c3bdb3385604051610bd19291906130bd565b60405180910390a2610be33382611afd565b610bed8184611b1b565b60405180604001604052808281526020013373ffffffffffffffffffffffffffffffffffffffff16815250600c60008381526020019081526020016000206000820151816000015560208201518160010160006101000a81548173ffffffffffffffffffffffffffffffffffffffff021916908373ffffffffffffffffffffffffffffffffffffffff1602179055509050506001600b84604051610c919190612f7f565b908152602001604051809103902060006101000a81548160ff02191690831515021790555080915050919050565b610cda838383604051806020016040528060008152506112af565b505050565b6000610cea826110d0565b15610d2a576040517f08c379a0000000000000000000000000000000000000000000000000000000008152600401610d219061309d565b60405180910390fd5b610d3384610519565b610d72576040517f08c379a0000000000000000000000000000000000000000000000000000000008152600401610d6990612f23565b60405180910390fd5b610d7c600a611ae7565b6000610d88600a611795565b905084600e60008381526020019081526020016000208190555060405180608001604052808281526020018581526020013373ffffffffffffffffffffffffffffffffffffffff16815260200184815250600d6000838152602001908152602001600020600082015181600001556020820151816001015560408201518160020160006101000a81548173ffffffffffffffffffffffffffffffffffffffff021916908373ffffffffffffffffffffffffffffffffffffffff1602179055506060820151816003019081610e5c9190613299565b509050506001600b84604051610e729190612f7f565b908152602001604051809103902060006101000a81548160ff021916908315150217905550807f80164b4fd46f0eb2d541a04756c5ebed741423ff02b3105100d6e1834f90010f85873387604051610ecd949392919061336b565b60405180910390a2809150509392505050565b6000806002600084815260200190815260200160002060009054906101000a900473ffffffffffffffffffffffffffffffffffffffff169050600073ffffffffffffffffffffffffffffffffffffffff168173ffffffffffffffffffffffffffffffffffffffff1603610f88576040517f08c379a0000000000000000000000000000000000000000000000000000000008152600401610f7f90613429565b60405180910390fd5b80915050919050565b60008073ffffffffffffffffffffffffffffffffffffffff168273ffffffffffffffffffffffffffffffffffffffff1603611001576040517f08c379a0000000000000000000000000000000000000000000000000000000008152600401610ff8906134bb565b60405180910390fd5b600360008373ffffffffffffffffffffffffffffffffffffffff1673ffffffffffffffffffffffffffffffffffffffff168152602001908152602001600020549050919050565b6110506116d4565b73ffffffffffffffffffffffffffffffffffffffff1661106e611199565b73ffffffffffffffffffffffffffffffffffffffff16146110c4576040517f08c379a00000000000000000000000000000000000000000000000000000000081526004016110bb90613527565b60405180910390fd5b6110ce6000611b88565b565b600060011515600b836040516110e69190612f7f565b908152602001604051809103902060009054906101000a900460ff161515149050919050565b6111146124f0565b600c6000838152602001908152602001600020604051806040016040529081600082015481526020016001820160009054906101000a900473ffffffffffffffffffffffffffffffffffffffff1673ffffffffffffffffffffffffffffffffffffffff1673ffffffffffffffffffffffffffffffffffffffff16815250509050919050565b6000600760009054906101000a900473ffffffffffffffffffffffffffffffffffffffff16905090565b6060600180546111d290612cf0565b80601f01602080910402602001604051908101604052809291908181526020018280546111fe90612cf0565b801561124b5780601f106112205761010080835404028352916020019161124b565b820191906000526020600020905b81548152906001019060200180831161122e57829003601f168201915b5050505050905090565b6112676112606116d4565b8383611c4e565b5050565b80600860006101000a81548173ffffffffffffffffffffffffffffffffffffffff021916908373ffffffffffffffffffffffffffffffffffffffff16021790555050565b6112c06112ba6116d4565b836117a3565b6112ff576040517f08c379a00000000000000000000000000000000000000000000000000000000081526004016112f690613031565b60405180910390fd5b61130b84848484611dba565b50505050565b606061131c82611668565b61135b576040517f08c379a0000000000000000000000000000000000000000000000000000000008152600401611352906135b9565b60405180910390fd5b600060066000848152602001908152602001600020805461137b90612cf0565b80601f01602080910402602001604051908101604052809291908181526020018280546113a790612cf0565b80156113f45780601f106113c9576101008083540402835291602001916113f4565b820191906000526020600020905b8154815290600101906020018083116113d757829003601f168201915b505050505090506000611405611e16565b9050600081510361141a57819250505061145d565b60008251111561144f5780826040516020016114379291906135d9565b6040516020818303038152906040529250505061145d565b61145884611e2d565b925050505b919050565b600080600d6000848152602001908152602001600020600001541461148a576001905061148f565b600090505b919050565b6000600860009054906101000a900473ffffffffffffffffffffffffffffffffffffffff1673ffffffffffffffffffffffffffffffffffffffff168273ffffffffffffffffffffffffffffffffffffffff16036114f45760019050611501565b6114fe8383611ed4565b90505b92915050565b61150f6116d4565b73ffffffffffffffffffffffffffffffffffffffff1661152d611199565b73ffffffffffffffffffffffffffffffffffffffff1614611583576040517f08c379a000000000000000000000000000000000000000000000000000000000815260040161157a90613527565b60405180910390fd5b600073ffffffffffffffffffffffffffffffffffffffff168173ffffffffffffffffffffffffffffffffffffffff16036115f2576040517f08c379a00000000000000000000000000000000000000000000000000000000081526004016115e99061366f565b60405180910390fd5b6115fb81611b88565b50565b60007f01ffc9a7000000000000000000000000000000000000000000000000000000007bffffffffffffffffffffffffffffffffffffffffffffffffffffffff1916827bffffffffffffffffffffffffffffffffffffffffffffffffffffffff1916149050919050565b60008073ffffffffffffffffffffffffffffffffffffffff166002600084815260200190815260200160002060009054906101000a900473ffffffffffffffffffffffffffffffffffffffff1673ffffffffffffffffffffffffffffffffffffffff1614159050919050565b600033905090565b816004600083815260200190815260200160002060006101000a81548173ffffffffffffffffffffffffffffffffffffffff021916908373ffffffffffffffffffffffffffffffffffffffff160217905550808273ffffffffffffffffffffffffffffffffffffffff1661174f83610ee0565b73ffffffffffffffffffffffffffffffffffffffff167f8c5be1e5ebec7d5bd14f71427d1e84f3dd0314c0f7b2291e5b200ac8c7c3b92560405160405180910390a45050565b600081600001549050919050565b60006117ae82611668565b6117ed576040517f08c379a00000000000000000000000000000000000000000000000000000000081526004016117e490613701565b60405180910390fd5b60006117f883610ee0565b90508073ffffffffffffffffffffffffffffffffffffffff168473ffffffffffffffffffffffffffffffffffffffff16148061186757508373ffffffffffffffffffffffffffffffffffffffff1661184f846106bf565b73ffffffffffffffffffffffffffffffffffffffff16145b8061187857506118778185611494565b5b91505092915050565b8273ffffffffffffffffffffffffffffffffffffffff166118a182610ee0565b73ffffffffffffffffffffffffffffffffffffffff16146118f7576040517f08c379a00000000000000000000000000000000000000000000000000000000081526004016118ee90613793565b60405180910390fd5b600073ffffffffffffffffffffffffffffffffffffffff168273ffffffffffffffffffffffffffffffffffffffff1603611966576040517f08c379a000000000000000000000000000000000000000000000000000000000815260040161195d90613825565b60405180910390fd5b611971838383611f68565b61197c6000826116dc565b6001600360008573ffffffffffffffffffffffffffffffffffffffff1673ffffffffffffffffffffffffffffffffffffffff16815260200190815260200160002060008282546119cc9190613874565b925050819055506001600360008473ffffffffffffffffffffffffffffffffffffffff1673ffffffffffffffffffffffffffffffffffffffff1681526020019081526020016000206000828254611a2391906138a8565b92505081905550816002600083815260200190815260200160002060006101000a81548173ffffffffffffffffffffffffffffffffffffffff021916908373ffffffffffffffffffffffffffffffffffffffff160217905550808273ffffffffffffffffffffffffffffffffffffffff168473ffffffffffffffffffffffffffffffffffffffff167fddf252ad1be2c89b69c2b068fc378daa952ba7f163c4a11628f55a4df523b3ef60405160405180910390a4611ae2838383611f6d565b505050565b6001816000016000828254019250508190555050565b611b17828260405180602001604052806000815250611f72565b5050565b611b2482611668565b611b63576040517f08c379a0000000000000000000000000000000000000000000000000000000008152600401611b5a90613970565b60405180910390fd5b80600660008481526020019081526020016000209081611b839190613299565b505050565b6000600760009054906101000a900473ffffffffffffffffffffffffffffffffffffffff16905081600760006101000a81548173ffffffffffffffffffffffffffffffffffffffff021916908373ffffffffffffffffffffffffffffffffffffffff1602179055508173ffffffffffffffffffffffffffffffffffffffff168173ffffffffffffffffffffffffffffffffffffffff167f8be0079c531659141344cd1fd0a4f28419497f9722a3daafe3b4186f6b6457e060405160405180910390a35050565b8173ffffffffffffffffffffffffffffffffffffffff168373ffffffffffffffffffffffffffffffffffffffff1603611cbc576040517f08c379a0000000000000000000000000000000000000000000000000000000008152600401611cb3906139dc565b60405180910390fd5b80600560008573ffffffffffffffffffffffffffffffffffffffff1673ffffffffffffffffffffffffffffffffffffffff16815260200190815260200160002060008473ffffffffffffffffffffffffffffffffffffffff1673ffffffffffffffffffffffffffffffffffffffff16815260200190815260200160002060006101000a81548160ff0219169083151502179055508173ffffffffffffffffffffffffffffffffffffffff168373ffffffffffffffffffffffffffffffffffffffff167f17307eab39ab6107e8899845ad3d59bd9653f200f220920489ca2b5937696c3183604051611dad91906125cf565b60405180910390a3505050565b611dc5848484611881565b611dd184848484611fcd565b611e10576040517f08c379a0000000000000000000000000000000000000000000000000000000008152600401611e0790613a6e565b60405180910390fd5b50505050565b606060405180602001604052806000815250905090565b6060611e3882611668565b611e77576040517f08c379a0000000000000000000000000000000000000000000000000000000008152600401611e6e90613b00565b60405180910390fd5b6000611e81611e16565b90506000815111611ea15760405180602001604052806000815250611ecc565b80611eab84612154565b604051602001611ebc9291906135d9565b6040516020818303038152906040525b915050919050565b6000600560008473ffffffffffffffffffffffffffffffffffffffff1673ffffffffffffffffffffffffffffffffffffffff16815260200190815260200160002060008373ffffffffffffffffffffffffffffffffffffffff1673ffffffffffffffffffffffffffffffffffffffff16815260200190815260200160002060009054906101000a900460ff16905092915050565b505050565b505050565b611f7c83836122b4565b611f896000848484611fcd565b611fc8576040517f08c379a0000000000000000000000000000000000000000000000000000000008152600401611fbf90613a6e565b60405180910390fd5b505050565b6000611fee8473ffffffffffffffffffffffffffffffffffffffff1661248d565b15612147578373ffffffffffffffffffffffffffffffffffffffff1663150b7a026120176116d4565b8786866040518563ffffffff1660e01b81526004016120399493929190613b75565b6020604051808303816000875af192505050801561207557506040513d601f19601f820116820180604052508101906120729190613bd6565b60015b6120f7573d80600081146120a5576040519150601f19603f3d011682016040523d82523d6000602084013e6120aa565b606091505b5060008151036120ef576040517f08c379a00000000000000000000000000000000000000000000000000000000081526004016120e690613a6e565b60405180910390fd5b805181602001fd5b63150b7a0260e01b7bffffffffffffffffffffffffffffffffffffffffffffffffffffffff1916817bffffffffffffffffffffffffffffffffffffffffffffffffffffffff19161491505061214c565b600190505b949350505050565b60606000820361219b576040518060400160405280600181526020017f300000000000000000000000000000000000000000000000000000000000000081525090506122af565b600082905060005b600082146121cd5780806121b690613c03565b915050600a826121c69190613c7a565b91506121a3565b60008167ffffffffffffffff8111156121e9576121e8612879565b5b6040519080825280601f01601f19166020018201604052801561221b5781602001600182028036833780820191505090505b5090505b600085146122a8576001826122349190613874565b9150600a856122439190613cab565b603061224f91906138a8565b60f81b81838151811061226557612264613cdc565b5b60200101907effffffffffffffffffffffffffffffffffffffffffffffffffffffffffffff1916908160001a905350600a856122a19190613c7a565b945061221f565b8093505050505b919050565b600073ffffffffffffffffffffffffffffffffffffffff168273ffffffffffffffffffffffffffffffffffffffff1603612323576040517f08c379a000000000000000000000000000000000000000000000000000000000815260040161231a90613d57565b60405180910390fd5b61232c81611668565b1561236c576040517f08c379a000000000000000000000000000000000000000000000000000000000815260040161236390613dc3565b60405180910390fd5b61237860008383611f68565b6001600360008473ffffffffffffffffffffffffffffffffffffffff1673ffffffffffffffffffffffffffffffffffffffff16815260200190815260200160002060008282546123c891906138a8565b92505081905550816002600083815260200190815260200160002060006101000a81548173ffffffffffffffffffffffffffffffffffffffff021916908373ffffffffffffffffffffffffffffffffffffffff160217905550808273ffffffffffffffffffffffffffffffffffffffff16600073ffffffffffffffffffffffffffffffffffffffff167fddf252ad1be2c89b69c2b068fc378daa952ba7f163c4a11628f55a4df523b3ef60405160405180910390a461248960008383611f6d565b5050565b6000808273ffffffffffffffffffffffffffffffffffffffff163b119050919050565b5080546124bc90612cf0565b6000825580601f106124ce57506124ed565b601f0160209004906000526020600020908101906124ec9190612520565b5b50565b604051806040016040528060008152602001600073ffffffffffffffffffffffffffffffffffffffff1681525090565b5b80821115612539576000816000905550600101612521565b5090565b6000604051905090565b600080fd5b600080fd5b6000819050919050565b61256481612551565b811461256f57600080fd5b50565b6000813590506125818161255b565b92915050565b60006020828403121561259d5761259c612547565b5b60006125ab84828501612572565b91505092915050565b60008115159050919050565b6125c9816125b4565b82525050565b60006020820190506125e460008301846125c0565b92915050565b60007fffffffff0000000000000000000000000000000000000000000000000000000082169050919050565b61261f816125ea565b811461262a57600080fd5b50565b60008135905061263c81612616565b92915050565b60006020828403121561265857612657612547565b5b60006126668482850161262d565b91505092915050565b600081519050919050565b600082825260208201905092915050565b60005b838110156126a957808201518184015260208101905061268e565b838111156126b8576000848401525b50505050565b6000601f19601f8301169050919050565b60006126da8261266f565b6126e4818561267a565b93506126f481856020860161268b565b6126fd816126be565b840191505092915050565b6000602082019050818103600083015261272281846126cf565b905092915050565b600073ffffffffffffffffffffffffffffffffffffffff82169050919050565b60006127558261272a565b9050919050565b6127658161274a565b82525050565b6000602082019050612780600083018461275c565b92915050565b61278f8161274a565b811461279a57600080fd5b50565b6000813590506127ac81612786565b92915050565b600080604083850312156127c9576127c8612547565b5b60006127d78582860161279d565b92505060206127e885828601612572565b9150509250929050565b6127fb81612551565b82525050565b600060208201905061281660008301846127f2565b92915050565b60008060006060848603121561283557612834612547565b5b60006128438682870161279d565b93505060206128548682870161279d565b925050604061286586828701612572565b9150509250925092565b600080fd5b600080fd5b7f4e487b7100000000000000000000000000000000000000000000000000000000600052604160045260246000fd5b6128b1826126be565b810181811067ffffffffffffffff821117156128d0576128cf612879565b5b80604052505050565b60006128e361253d565b90506128ef82826128a8565b919050565b600067ffffffffffffffff82111561290f5761290e612879565b5b612918826126be565b9050602081019050919050565b82818337600083830152505050565b6000612947612942846128f4565b6128d9565b90508281526020810184848401111561296357612962612874565b5b61296e848285612925565b509392505050565b600082601f83011261298b5761298a61286f565b5b813561299b848260208601612934565b91505092915050565b6000602082840312156129ba576129b9612547565b5b600082013567ffffffffffffffff8111156129d8576129d761254c565b5b6129e484828501612976565b91505092915050565b600080600060608486031215612a0657612a05612547565b5b6000612a1486828701612572565b9350506020612a2586828701612572565b925050604084013567ffffffffffffffff811115612a4657612a4561254c565b5b612a5286828701612976565b9150509250925092565b600060208284031215612a7257612a71612547565b5b6000612a808482850161279d565b91505092915050565b612a9281612551565b82525050565b612aa18161274a565b82525050565b604082016000820151612abd6000850182612a89565b506020820151612ad06020850182612a98565b50505050565b6000604082019050612aeb6000830184612aa7565b92915050565b612afa816125b4565b8114612b0557600080fd5b50565b600081359050612b1781612af1565b92915050565b60008060408385031215612b3457612b33612547565b5b6000612b428582860161279d565b9250506020612b5385828601612b08565b9150509250929050565b600067ffffffffffffffff821115612b7857612b77612879565b5b612b81826126be565b9050602081019050919050565b6000612ba1612b9c84612b5d565b6128d9565b905082815260208101848484011115612bbd57612bbc612874565b5b612bc8848285612925565b509392505050565b600082601f830112612be557612be461286f565b5b8135612bf5848260208601612b8e565b91505092915050565b60008060008060808587031215612c1857612c17612547565b5b6000612c268782880161279d565b9450506020612c378782880161279d565b9350506040612c4887828801612572565b925050606085013567ffffffffffffffff811115612c6957612c6861254c565b5b612c7587828801612bd0565b91505092959194509250565b60008060408385031215612c9857612c97612547565b5b6000612ca68582860161279d565b9250506020612cb78582860161279d565b9150509250929050565b7f4e487b7100000000000000000000000000000000000000000000000000000000600052602260045260246000fd5b60006002820490506001821680612d0857607f821691505b602082108103612d1b57612d1a612cc1565b5b50919050565b7f4552433732313a20617070726f76656420717565727920666f72206e6f6e657860008201527f697374656e7420746f6b656e0000000000000000000000000000000000000000602082015250565b6000612d7d602c8361267a565b9150612d8882612d21565b604082019050919050565b60006020820190508181036000830152612dac81612d70565b9050919050565b7f4552433732313a20617070726f76616c20746f2063757272656e74206f776e6560008201527f7200000000000000000000000000000000000000000000000000000000000000602082015250565b6000612e0f60218361267a565b9150612e1a82612db3565b604082019050919050565b60006020820190508181036000830152612e3e81612e02565b9050919050565b7f4552433732313a20617070726f76652063616c6c6572206973206e6f74206f7760008201527f6e6572206e6f7220617070726f76656420666f7220616c6c0000000000000000602082015250565b6000612ea160388361267a565b9150612eac82612e45565b604082019050919050565b60006020820190508181036000830152612ed081612e94565b9050919050565b7f546f6b656e20646f6573206e6f74206578697374730000000000000000000000600082015250565b6000612f0d60158361267a565b9150612f1882612ed7565b602082019050919050565b60006020820190508181036000830152612f3c81612f00565b9050919050565b600081905092915050565b6000612f598261266f565b612f638185612f43565b9350612f7381856020860161268b565b80840191505092915050565b6000612f8b8284612f4e565b915081905092915050565b6000604082019050612fab60008301856127f2565b612fb8602083018461275c565b9392505050565b7f4552433732313a207472616e736665722063616c6c6572206973206e6f74206f60008201527f776e6572206e6f7220617070726f766564000000000000000000000000000000602082015250565b600061301b60318361267a565b915061302682612fbf565b604082019050919050565b6000602082019050818103600083015261304a8161300e565b9050919050565b7f546f6b656e2055524920616c7265616479206578697374730000000000000000600082015250565b600061308760188361267a565b915061309282613051565b602082019050919050565b600060208201905081810360008301526130b68161307a565b9050919050565b60006040820190506130d2600083018561275c565b81810360208301526130e481846126cf565b90509392505050565b60008190508160005260206000209050919050565b60006020601f8301049050919050565b600082821b905092915050565b60006008830261314f7fffffffffffffffffffffffffffffffffffffffffffffffffffffffffffffffff82613112565b6131598683613112565b95508019841693508086168417925050509392505050565b6000819050919050565b600061319661319161318c84612551565b613171565b612551565b9050919050565b6000819050919050565b6131b08361317b565b6131c46131bc8261319d565b84845461311f565b825550505050565b600090565b6131d96131cc565b6131e48184846131a7565b505050565b5b81811015613208576131fd6000826131d1565b6001810190506131ea565b5050565b601f82111561324d5761321e816130ed565b61322784613102565b81016020851015613236578190505b61324a61324285613102565b8301826131e9565b50505b505050565b600082821c905092915050565b600061327060001984600802613252565b1980831691505092915050565b6000613289838361325f565b9150826002028217905092915050565b6132a28261266f565b67ffffffffffffffff8111156132bb576132ba612879565b5b6132c58254612cf0565b6132d082828561320c565b600060209050601f83116001811461330357600084156132f1578287015190505b6132fb858261327d565b865550613363565b601f198416613311866130ed565b60005b8281101561333957848901518255600182019150602085019450602081019050613314565b868310156133565784890151613352601f89168261325f565b8355505b6001600288020188555050505b505050505050565b600060808201905061338060008301876127f2565b61338d60208301866127f2565b61339a604083018561275c565b81810360608301526133ac81846126cf565b905095945050505050565b7f4552433732313a206f776e657220717565727920666f72206e6f6e657869737460008201527f656e7420746f6b656e0000000000000000000000000000000000000000000000602082015250565b600061341360298361267a565b915061341e826133b7565b604082019050919050565b6000602082019050818103600083015261344281613406565b9050919050565b7f4552433732313a2062616c616e636520717565727920666f7220746865207a6560008201527f726f206164647265737300000000000000000000000000000000000000000000602082015250565b60006134a5602a8361267a565b91506134b082613449565b604082019050919050565b600060208201905081810360008301526134d481613498565b9050919050565b7f4f776e61626c653a2063616c6c6572206973206e6f7420746865206f776e6572600082015250565b600061351160208361267a565b915061351c826134db565b602082019050919050565b6000602082019050818103600083015261354081613504565b9050919050565b7f45524337323155524953746f726167653a2055524920717565727920666f722060008201527f6e6f6e6578697374656e7420746f6b656e000000000000000000000000000000602082015250565b60006135a360318361267a565b91506135ae82613547565b604082019050919050565b600060208201905081810360008301526135d281613596565b9050919050565b60006135e58285612f4e565b91506135f18284612f4e565b91508190509392505050565b7f4f776e61626c653a206e6577206f776e657220697320746865207a65726f206160008201527f6464726573730000000000000000000000000000000000000000000000000000602082015250565b600061365960268361267a565b9150613664826135fd565b604082019050919050565b600060208201905081810360008301526136888161364c565b9050919050565b7f4552433732313a206f70657261746f7220717565727920666f72206e6f6e657860008201527f697374656e7420746f6b656e0000000000000000000000000000000000000000602082015250565b60006136eb602c8361267a565b91506136f68261368f565b604082019050919050565b6000602082019050818103600083015261371a816136de565b9050919050565b7f4552433732313a207472616e736665722066726f6d20696e636f72726563742060008201527f6f776e6572000000000000000000000000000000000000000000000000000000602082015250565b600061377d60258361267a565b915061378882613721565b604082019050919050565b600060208201905081810360008301526137ac81613770565b9050919050565b7f4552433732313a207472616e7366657220746f20746865207a65726f2061646460008201527f7265737300000000000000000000000000000000000000000000000000000000602082015250565b600061380f60248361267a565b915061381a826137b3565b604082019050919050565b6000602082019050818103600083015261383e81613802565b9050919050565b7f4e487b7100000000000000000000000000000000000000000000000000000000600052601160045260246000fd5b600061387f82612551565b915061388a83612551565b92508282101561389d5761389c613845565b5b828203905092915050565b60006138b382612551565b91506138be83612551565b9250827fffffffffffffffffffffffffffffffffffffffffffffffffffffffffffffffff038211156138f3576138f2613845565b5b828201905092915050565b7f45524337323155524953746f726167653a2055524920736574206f66206e6f6e60008201527f6578697374656e7420746f6b656e000000000000000000000000000000000000602082015250565b600061395a602e8361267a565b9150613965826138fe565b604082019050919050565b600060208201905081810360008301526139898161394d565b9050919050565b7f4552433732313a20617070726f766520746f2063616c6c657200000000000000600082015250565b60006139c660198361267a565b91506139d182613990565b602082019050919050565b600060208201905081810360008301526139f5816139b9565b9050919050565b7f4552433732313a207472616e7366657220746f206e6f6e20455243373231526560008201527f63656976657220696d706c656d656e7465720000000000000000000000000000602082015250565b6000613a5860328361267a565b9150613a63826139fc565b604082019050919050565b60006020820190508181036000830152613a8781613a4b565b9050919050565b7f4552433732314d657461646174613a2055524920717565727920666f72206e6f60008201527f6e6578697374656e7420746f6b656e0000000000000000000000000000000000602082015250565b6000613aea602f8361267a565b9150613af582613a8e565b604082019050919050565b60006020820190508181036000830152613b1981613add565b9050919050565b600081519050919050565b600082825260208201905092915050565b6000613b4782613b20565b613b518185613b2b565b9350613b6181856020860161268b565b613b6a816126be565b840191505092915050565b6000608082019050613b8a600083018761275c565b613b97602083018661275c565b613ba460408301856127f2565b8181036060830152613bb68184613b3c565b905095945050505050565b600081519050613bd081612616565b92915050565b600060208284031215613bec57613beb612547565b5b6000613bfa84828501613bc1565b91505092915050565b6000613c0e82612551565b91507fffffffffffffffffffffffffffffffffffffffffffffffffffffffffffffffff8203613c4057613c3f613845565b5b600182019050919050565b7f4e487b7100000000000000000000000000000000000000000000000000000000600052601260045260246000fd5b6000613c8582612551565b9150613c9083612551565b925082613ca057613c9f613c4b565b5b828204905092915050565b6000613cb682612551565b9150613cc183612551565b925082613cd157613cd0613c4b565b5b828206905092915050565b7f4e487b7100000000000000000000000000000000000000000000000000000000600052603260045260246000fd5b7f4552433732313a206d696e7420746f20746865207a65726f2061646472657373600082015250565b6000613d4160208361267a565b9150613d4c82613d0b565b602082019050919050565b60006020820190508181036000830152613d7081613d34565b9050919050565b7f4552433732313a20746f6b656e20616c7265616479206d696e74656400000000600082015250565b6000613dad601c8361267a565b9150613db882613d77565b602082019050919050565b60006020820190508181036000830152613ddc81613da0565b905091905056fea26469706673582212206346a9d4e736f4ec45bce9ae652c1c8bc338cb78a8039301585138afb623bd8264736f6c634300080f0033",
  "immutableReferences": {},
  "source": "// SPDX-License-Identifier: MIT\r\npragma solidity >=0.4.22 <0.9.0;\r\n\r\nimport \"@openzeppelin/contracts/token/ERC721/extensions/ERC721URIStorage.sol\";\r\nimport \"@openzeppelin/contracts/utils/Counters.sol\";\r\nimport \"@openzeppelin/contracts/access/Ownable.sol\";\r\n\r\ncontract VehicleRegistrationToken is ERC721URIStorage, Ownable {\r\n    using Counters for Counters.Counter;\r\n    address _marketplaceAddress;\r\n\r\n    constructor() ERC721(\"Vehicle Registration Token\", \"VRT\") {}\r\n\r\n    struct VehicleToken {\r\n        uint256 tokenId;\r\n        address mintingAuthority;\r\n    }\r\n\r\n    struct VehicleCertification {\r\n        uint256 id;\r\n        uint256 code;\r\n        address authority;\r\n        string uri;\r\n    }\r\n\r\n    event VehicleTokenCreated(\r\n        uint256 indexed tokenId,\r\n        address creator,\r\n        string uri\r\n    );\r\n\r\n    event VehicleCertificationCreated(\r\n        uint256 indexed id,\r\n        uint256 code,\r\n        uint256 vehicleId,\r\n        address authority,\r\n        string uri\r\n    );\r\n\r\n    event VehicleCertificationCanceled(\r\n        uint256 indexed id,\r\n        uint256 vehicleId,\r\n        address authority\r\n    );\r\n\r\n    Counters.Counter private _tokenIds;\r\n    Counters.Counter private _certificationIds;\r\n\r\n    mapping(string => bool) private _usedURIs;\r\n    mapping(uint256 => VehicleToken) private _idToVehicleToken;\r\n\r\n    mapping(uint256 => VehicleCertification) private _idToVehicleCertification;\r\n    mapping(uint256 => uint256) private _certificationIdToVehicleTokenId;\r\n\r\n    function setMarketplaceAddress(address marketplaceAddress) public {\r\n        _marketplaceAddress = marketplaceAddress;\r\n    }\r\n\r\n    function getVehicleToken(uint256 tokenId)\r\n        public\r\n        view\r\n        returns (VehicleToken memory)\r\n    {\r\n        return _idToVehicleToken[tokenId];\r\n    }\r\n\r\n    function isURIUsed(string memory tokenURI) public view returns (bool) {\r\n        return _usedURIs[tokenURI] == true;\r\n    }\r\n\r\n    function totalSupply() public view returns (uint256) {\r\n        return _tokenIds.current();\r\n    }\r\n\r\n    function mintToken(string memory tokenURI) public returns (uint256) {\r\n        require(!isURIUsed(tokenURI), \"Token URI already exists\");\r\n\r\n        _tokenIds.increment();\r\n\r\n        uint256 newTokenId = _tokenIds.current();\r\n\r\n        emit VehicleTokenCreated(newTokenId, msg.sender, tokenURI);\r\n        _safeMint(msg.sender, newTokenId);\r\n        _setTokenURI(newTokenId, tokenURI);\r\n        _idToVehicleToken[newTokenId] = VehicleToken(newTokenId, msg.sender);\r\n        _usedURIs[tokenURI] = true;\r\n        return newTokenId;\r\n    }\r\n\r\n    function isApprovedForAll(address owner, address operator)\r\n        public\r\n        view\r\n        override\r\n        returns (bool)\r\n    {\r\n        // Whitelist OpenSea proxy contract for easy trading.\r\n        if (operator == _marketplaceAddress) {\r\n            return true;\r\n        }\r\n\r\n        return super.isApprovedForAll(owner, operator);\r\n    }\r\n\r\n    function tokenExists(uint256 key) public view returns (bool) {\r\n        // check if non-zero value in struct is zero\r\n        // if it is zero then you know that myMapping[key] doesn't yet exist\r\n        if (_idToVehicleToken[key].tokenId != 0) {\r\n            return true;\r\n        }\r\n        return false;\r\n    }\r\n\r\n    function certificationExists(uint256 key) public view returns (bool) {\r\n        // check if non-zero value in struct is zero\r\n        // if it is zero then you know that myMapping[key] doesn't yet exist\r\n        if (_idToVehicleCertification[key].id != 0) {\r\n            return true;\r\n        }\r\n        return false;\r\n    }\r\n\r\n    function addCertification(\r\n        uint256 vehicleId,\r\n        uint256 code,\r\n        string memory certificationURI\r\n    ) public returns (uint256) {\r\n        require(!isURIUsed(certificationURI), \"Token URI already exists\");\r\n        require(tokenExists(vehicleId), \"Token does not exists\");\r\n        _certificationIds.increment();\r\n        uint256 newCertificationId = _certificationIds.current();\r\n        _certificationIdToVehicleTokenId[newCertificationId] = vehicleId;\r\n        _idToVehicleCertification[newCertificationId] = VehicleCertification(\r\n            newCertificationId,\r\n            code,\r\n            msg.sender,\r\n            certificationURI\r\n        );\r\n        _usedURIs[certificationURI] = true;\r\n        emit VehicleCertificationCreated(\r\n            newCertificationId,\r\n            code,\r\n            vehicleId,\r\n            msg.sender,\r\n            certificationURI\r\n        );\r\n        return newCertificationId;\r\n    }\r\n\r\n    function deleteCertification(uint256 certificationId) public {\r\n        require(certificationExists(certificationId), \"Token does not exists\");\r\n        VehicleCertification\r\n            memory vehicleCertification = _idToVehicleCertification[\r\n                certificationId\r\n            ];\r\n        _usedURIs[vehicleCertification.uri] = false;\r\n        uint256 vehicleId = _certificationIdToVehicleTokenId[certificationId];\r\n        delete _idToVehicleCertification[certificationId];\r\n        delete _certificationIdToVehicleTokenId[certificationId];\r\n        emit VehicleCertificationCanceled(\r\n            certificationId,\r\n            vehicleId,\r\n            vehicleCertification.authority\r\n        );\r\n    }\r\n}\r\n",
  "sourcePath": "D:\\UTENTE\\Andrea\\CODICE\\Ethereum\\tesi-2022-website\\contracts\\VehicleRegistrationToken.sol",
  "compiler": {
    "name": "solc",
    "version": "0.8.15+commit.e14f2714.Emscripten.clang"
  },
  "schemaVersion": "3.4.8",
  "updatedAt": "2022-09-15T13:43:06.106Z",
  "devdoc": {
    "kind": "dev",
    "methods": {
      "approve(address,uint256)": {
        "details": "See {IERC721-approve}."
      },
      "balanceOf(address)": {
        "details": "See {IERC721-balanceOf}."
      },
      "getApproved(uint256)": {
        "details": "See {IERC721-getApproved}."
      },
      "isApprovedForAll(address,address)": {
        "details": "See {IERC721-isApprovedForAll}."
      },
      "name()": {
        "details": "See {IERC721Metadata-name}."
      },
      "owner()": {
        "details": "Returns the address of the current owner."
      },
      "ownerOf(uint256)": {
        "details": "See {IERC721-ownerOf}."
      },
      "renounceOwnership()": {
        "details": "Leaves the contract without owner. It will not be possible to call `onlyOwner` functions anymore. Can only be called by the current owner. NOTE: Renouncing ownership will leave the contract without an owner, thereby removing any functionality that is only available to the owner."
      },
      "safeTransferFrom(address,address,uint256)": {
        "details": "See {IERC721-safeTransferFrom}."
      },
      "safeTransferFrom(address,address,uint256,bytes)": {
        "details": "See {IERC721-safeTransferFrom}."
      },
      "setApprovalForAll(address,bool)": {
        "details": "See {IERC721-setApprovalForAll}."
      },
      "supportsInterface(bytes4)": {
        "details": "See {IERC165-supportsInterface}."
      },
      "symbol()": {
        "details": "See {IERC721Metadata-symbol}."
      },
      "tokenURI(uint256)": {
        "details": "See {IERC721Metadata-tokenURI}."
      },
      "transferFrom(address,address,uint256)": {
        "details": "See {IERC721-transferFrom}."
      },
      "transferOwnership(address)": {
        "details": "Transfers ownership of the contract to a new account (`newOwner`). Can only be called by the current owner."
      }
    },
    "version": 1
  },
  "userdoc": {
    "kind": "user",
    "methods": {},
    "version": 1
  }
}